{
  "contractName": "DivisibleNFTs",
  "abi": [
    {
      "inputs": [],
      "stateMutability": "payable",
      "type": "constructor",
      "payable": true
    },
    {
      "anonymous": false,
      "inputs": [
        {
          "indexed": false,
          "internalType": "uint256",
          "name": "_acoinBalance",
          "type": "uint256"
        },
        {
          "indexed": false,
          "internalType": "address payable",
          "name": "_caller",
          "type": "address"
        },
        {
          "indexed": false,
          "internalType": "string",
          "name": "_message",
          "type": "string"
        }
      ],
      "name": "acoinBalanceOfEvent",
      "type": "event"
    },
    {
      "anonymous": false,
      "inputs": [
        {
          "indexed": false,
          "internalType": "address",
          "name": "_owner",
          "type": "address"
        },
        {
          "indexed": false,
          "internalType": "string",
          "name": "_tokenId",
          "type": "string"
        },
        {
          "indexed": false,
          "internalType": "uint256",
          "name": "_units",
          "type": "uint256"
        },
        {
          "indexed": false,
          "internalType": "address payable",
          "name": "_caller",
          "type": "address"
        },
        {
          "indexed": false,
          "internalType": "string",
          "name": "_message",
          "type": "string"
        }
      ],
      "name": "addOwnerHoldingsEvent",
      "type": "event"
    },
    {
      "anonymous": false,
      "inputs": [
        {
          "indexed": false,
          "internalType": "address",
          "name": "_owner",
          "type": "address"
        },
        {
          "indexed": false,
          "internalType": "string",
          "name": "_tokenId",
          "type": "string"
        },
        {
          "indexed": false,
          "internalType": "uint256",
          "name": "_units",
          "type": "uint256"
        },
        {
          "indexed": false,
          "internalType": "address payable",
          "name": "_caller",
          "type": "address"
        },
        {
          "indexed": false,
          "internalType": "string",
          "name": "_message",
          "type": "string"
        }
      ],
      "name": "addShareEvent",
      "type": "event"
    },
    {
      "anonymous": false,
      "inputs": [
        {
          "indexed": false,
          "internalType": "address",
          "name": "_account",
          "type": "address"
        },
        {
          "indexed": false,
          "internalType": "uint256",
          "name": "_numACoins",
          "type": "uint256"
        },
        {
          "indexed": false,
          "internalType": "address payable",
          "name": "_caller",
          "type": "address"
        },
        {
          "indexed": false,
          "internalType": "string",
          "name": "_message",
          "type": "string"
        }
      ],
      "name": "burnACoinEvent",
      "type": "event"
    },
    {
      "anonymous": false,
      "inputs": [
        {
          "indexed": false,
          "internalType": "address",
          "name": "_account",
          "type": "address"
        },
        {
          "indexed": false,
          "internalType": "uint256",
          "name": "_numACoins",
          "type": "uint256"
        },
        {
          "indexed": false,
          "internalType": "address payable",
          "name": "_caller",
          "type": "address"
        },
        {
          "indexed": false,
          "internalType": "string",
          "name": "_message",
          "type": "string"
        }
      ],
      "name": "buyACoinEvent",
      "type": "event"
    },
    {
      "anonymous": false,
      "inputs": [
        {
          "indexed": false,
          "internalType": "uint256",
          "name": "_divisibility",
          "type": "uint256"
        },
        {
          "indexed": false,
          "internalType": "address payable",
          "name": "_caller",
          "type": "address"
        },
        {
          "indexed": false,
          "internalType": "string",
          "name": "_message",
          "type": "string"
        }
      ],
      "name": "divisibilityEvent",
      "type": "event"
    },
    {
      "anonymous": false,
      "inputs": [
        {
          "indexed": false,
          "internalType": "uint256",
          "name": "_acoinTotalSupply",
          "type": "uint256"
        },
        {
          "indexed": false,
          "internalType": "address payable",
          "name": "_caller",
          "type": "address"
        },
        {
          "indexed": false,
          "internalType": "string",
          "name": "_message",
          "type": "string"
        }
      ],
      "name": "getAcoinTotalSupplyEvent",
      "type": "event"
    },
    {
      "anonymous": false,
      "inputs": [
        {
          "indexed": false,
          "internalType": "address",
          "name": "_owner",
          "type": "address"
        },
        {
          "indexed": false,
          "internalType": "string",
          "name": "_tokenId",
          "type": "string"
        },
        {
          "indexed": false,
          "internalType": "uint256",
          "name": "_noOfShares",
          "type": "uint256"
        },
        {
          "indexed": false,
          "internalType": "uint256",
          "name": "_tokenTotalSupply",
          "type": "uint256"
        },
        {
          "indexed": false,
          "internalType": "address payable",
          "name": "_caller",
          "type": "address"
        },
        {
          "indexed": false,
          "internalType": "string",
          "name": "_message",
          "type": "string"
        }
      ],
      "name": "mintEvent",
      "type": "event"
    },
    {
      "anonymous": false,
      "inputs": [
        {
          "indexed": false,
          "internalType": "address",
          "name": "_owner",
          "type": "address"
        },
        {
          "indexed": false,
          "internalType": "string",
          "name": "_tokenId",
          "type": "string"
        },
        {
          "indexed": false,
          "internalType": "uint256",
          "name": "_units",
          "type": "uint256"
        },
        {
          "indexed": false,
          "internalType": "address payable",
          "name": "_caller",
          "type": "address"
        },
        {
          "indexed": false,
          "internalType": "string",
          "name": "_message",
          "type": "string"
        }
      ],
      "name": "removeOwnerHoldingsEvent",
      "type": "event"
    },
    {
      "anonymous": false,
      "inputs": [
        {
          "indexed": false,
          "internalType": "address",
          "name": "_owner",
          "type": "address"
        },
        {
          "indexed": false,
          "internalType": "string",
          "name": "_tokenId",
          "type": "string"
        },
        {
          "indexed": false,
          "internalType": "uint256",
          "name": "_units",
          "type": "uint256"
        },
        {
          "indexed": false,
          "internalType": "address payable",
          "name": "_caller",
          "type": "address"
        },
        {
          "indexed": false,
          "internalType": "string",
          "name": "_message",
          "type": "string"
        }
      ],
      "name": "removeShareEvent",
      "type": "event"
    },
    {
      "anonymous": false,
      "inputs": [
        {
          "indexed": false,
          "internalType": "uint256",
          "name": "_totalSupply",
          "type": "uint256"
        },
        {
          "indexed": false,
          "internalType": "address payable",
          "name": "_caller",
          "type": "address"
        },
        {
          "indexed": false,
          "internalType": "string",
          "name": "_message",
          "type": "string"
        }
      ],
      "name": "totalSupplyEvent",
      "type": "event"
    },
    {
      "anonymous": false,
      "inputs": [
        {
          "indexed": false,
          "internalType": "address",
          "name": "_from",
          "type": "address"
        },
        {
          "indexed": false,
          "internalType": "address",
          "name": "_to",
          "type": "address"
        },
        {
          "indexed": false,
          "internalType": "uint256",
          "name": "_numACoins",
          "type": "uint256"
        },
        {
          "indexed": false,
          "internalType": "address payable",
          "name": "_caller",
          "type": "address"
        },
        {
          "indexed": false,
          "internalType": "string",
          "name": "_message",
          "type": "string"
        }
      ],
      "name": "transferACoinEvent",
      "type": "event"
    },
    {
      "anonymous": false,
      "inputs": [
        {
          "indexed": false,
          "internalType": "address",
          "name": "_from",
          "type": "address"
        },
        {
          "indexed": false,
          "internalType": "address",
          "name": "_to",
          "type": "address"
        },
        {
          "indexed": false,
          "internalType": "string",
          "name": "_tokenId",
          "type": "string"
        },
        {
          "indexed": false,
          "internalType": "uint256",
          "name": "_units",
          "type": "uint256"
        },
        {
          "indexed": false,
          "internalType": "address payable",
          "name": "_caller",
          "type": "address"
        },
        {
          "indexed": false,
          "internalType": "string",
          "name": "_message",
          "type": "string"
        }
      ],
      "name": "transferTokenEvent",
      "type": "event"
    },
    {
      "anonymous": false,
      "inputs": [
        {
          "indexed": false,
          "internalType": "uint256",
          "name": "_balance",
          "type": "uint256"
        },
        {
          "indexed": false,
          "internalType": "address payable",
          "name": "_caller",
          "type": "address"
        },
        {
          "indexed": false,
          "internalType": "string",
          "name": "_message",
          "type": "string"
        }
      ],
      "name": "unitsOwnedOfATokenEvent",
      "type": "event"
    },
    {
      "inputs": [],
      "name": "decimals",
      "outputs": [
        {
          "internalType": "uint8",
          "name": "",
          "type": "uint8"
        }
      ],
      "stateMutability": "view",
      "type": "function",
      "constant": true
    },
    {
      "inputs": [],
      "name": "name",
      "outputs": [
        {
          "internalType": "string",
          "name": "",
          "type": "string"
        }
      ],
      "stateMutability": "view",
      "type": "function",
      "constant": true
    },
    {
      "inputs": [],
      "name": "symbol",
      "outputs": [
        {
          "internalType": "string",
          "name": "",
          "type": "string"
        }
      ],
      "stateMutability": "view",
      "type": "function",
      "constant": true
    },
    {
      "inputs": [],
      "name": "tokenTotalSupply",
      "outputs": [
        {
          "internalType": "uint256",
          "name": "",
          "type": "uint256"
        }
      ],
      "stateMutability": "view",
      "type": "function",
      "constant": true
    },
    {
      "inputs": [
        {
          "internalType": "address payable",
          "name": "_caller",
          "type": "address"
        }
      ],
      "name": "getAcoinTotalSupply",
      "outputs": [
        {
          "internalType": "uint256",
          "name": "",
          "type": "uint256"
        }
      ],
      "stateMutability": "nonpayable",
      "type": "function"
    },
    {
      "inputs": [
        {
          "internalType": "address",
          "name": "acoinOwner",
          "type": "address"
        }
      ],
      "name": "acoinBalanceOf",
      "outputs": [
        {
          "internalType": "uint256",
          "name": "",
          "type": "uint256"
        }
      ],
      "stateMutability": "view",
      "type": "function",
      "constant": true
    },
    {
      "inputs": [
        {
          "internalType": "address",
          "name": "account",
          "type": "address"
        },
        {
          "internalType": "uint256",
          "name": "numACoins",
          "type": "uint256"
        },
        {
          "internalType": "address payable",
          "name": "_caller",
          "type": "address"
        }
      ],
      "name": "buyACoin",
      "outputs": [],
      "stateMutability": "payable",
      "type": "function",
      "payable": true
    },
    {
      "inputs": [
        {
          "internalType": "address payable",
          "name": "account",
          "type": "address"
        },
        {
          "internalType": "uint256",
          "name": "numACoins",
          "type": "uint256"
        },
        {
          "internalType": "address payable",
          "name": "_caller",
          "type": "address"
        }
      ],
      "name": "burnACoin",
      "outputs": [],
      "stateMutability": "payable",
      "type": "function",
      "payable": true
    },
    {
      "inputs": [
        {
          "internalType": "address",
          "name": "sender",
          "type": "address"
        },
        {
          "internalType": "address",
          "name": "receiver",
          "type": "address"
        },
        {
          "internalType": "uint256",
          "name": "numACoins",
          "type": "uint256"
        },
        {
          "internalType": "address payable",
          "name": "_caller",
          "type": "address"
        }
      ],
      "name": "transferACoin",
      "outputs": [
        {
          "internalType": "bool",
          "name": "",
          "type": "bool"
        }
      ],
      "stateMutability": "nonpayable",
      "type": "function"
    },
    {
      "inputs": [
        {
          "internalType": "string",
          "name": "_tokenId",
          "type": "string"
        },
        {
          "internalType": "address payable",
          "name": "_caller",
          "type": "address"
        }
      ],
      "name": "divisibilityOfAToken",
      "outputs": [
        {
          "internalType": "uint256",
          "name": "_divisibility",
          "type": "uint256"
        }
      ],
      "stateMutability": "nonpayable",
      "type": "function"
    },
    {
      "inputs": [
        {
          "internalType": "address payable",
          "name": "_caller",
          "type": "address"
        }
      ],
      "name": "totalSupplyView",
      "outputs": [
        {
          "internalType": "uint256",
          "name": "_totalSupply",
          "type": "uint256"
        }
      ],
      "stateMutability": "nonpayable",
      "type": "function"
    },
    {
      "inputs": [
        {
          "internalType": "address",
          "name": "_owner",
          "type": "address"
        },
        {
          "internalType": "string",
          "name": "_tokenId",
          "type": "string"
        },
        {
          "internalType": "address payable",
          "name": "_caller",
          "type": "address"
        }
      ],
      "name": "unitsOwnedOfAToken",
      "outputs": [
        {
          "internalType": "uint256",
          "name": "_balance",
          "type": "uint256"
        }
      ],
      "stateMutability": "nonpayable",
      "type": "function"
    },
    {
      "inputs": [
        {
          "internalType": "address",
          "name": "_owner",
          "type": "address"
        },
        {
          "internalType": "string",
          "name": "_tokenId",
          "type": "string"
        },
        {
          "internalType": "uint256",
          "name": "_noOfShares",
          "type": "uint256"
        },
        {
          "internalType": "address payable",
          "name": "_caller",
          "type": "address"
        }
      ],
      "name": "mint",
      "outputs": [],
      "stateMutability": "nonpayable",
      "type": "function"
    },
    {
      "inputs": [
        {
          "internalType": "address",
          "name": "_from",
          "type": "address"
        },
        {
          "internalType": "address",
          "name": "_to",
          "type": "address"
        },
        {
          "internalType": "string",
          "name": "_tokenId",
          "type": "string"
        },
        {
          "internalType": "uint256",
          "name": "_units",
          "type": "uint256"
        },
        {
          "internalType": "address payable",
          "name": "_caller",
          "type": "address"
        }
      ],
      "name": "transferToken",
      "outputs": [],
      "stateMutability": "nonpayable",
      "type": "function"
    }
  ],
  "bytecode": "0x60806040526000600181905550600060078190555033600260006101000a81548173ffffffffffffffffffffffffffffffffffffffff021916908373ffffffffffffffffffffffffffffffffffffffff160217905550612206806100646000396000f3fe6080604052600436106100dd5760003560e01c80639c3df7111161007f578063c3be359f11610059578063c3be359f146102b8578063da32fcc8146102f5578063edc6fb6d14610332578063f7abab9e1461035b576100dd565b80639c3df71114610215578063af07e4a814610252578063bba9ea441461028f576100dd565b80637f11f448116100bb5780637f11f448146101755780638b652d171461019157806393737049146101ad57806395d89b41146101ea576100dd565b806306fdde03146100e25780631fdb3b991461010d578063313ce5671461014a575b600080fd5b3480156100ee57600080fd5b506100f7610386565b6040516101049190611102565b60405180910390f35b34801561011957600080fd5b50610134600480360381019061012f919061120a565b6103bf565b604051610141919061128c565b60405180910390f35b34801561015657600080fd5b5061015f61057b565b60405161016c91906112c3565b60405180910390f35b61018f600480360381019061018a91906112de565b610580565b005b6101ab60048036038101906101a69190611331565b6106d7565b005b3480156101b957600080fd5b506101d460048036038101906101cf9190611384565b610857565b6040516101e191906113c0565b60405180910390f35b3480156101f657600080fd5b506101ff61089e565b60405161020c9190611102565b60405180910390f35b34801561022157600080fd5b5061023c60048036038101906102379190611384565b6108d7565b60405161024991906113c0565b60405180910390f35b34801561025e57600080fd5b5061027960048036038101906102749190611510565b61091e565b60405161028691906113c0565b60405180910390f35b34801561029b57600080fd5b506102b660048036038101906102b1919061157f565b610a19565b005b3480156102c457600080fd5b506102df60048036038101906102da9190611616565b610b35565b6040516102ec91906113c0565b60405180910390f35b34801561030157600080fd5b5061031c60048036038101906103179190611672565b610bb5565b60405161032991906113c0565b60405180910390f35b34801561033e57600080fd5b506103596004803603810190610354919061169f565b610bfd565b005b34801561036757600080fd5b50610370610d45565b60405161037d91906113c0565b60405180910390f35b6040518060400160405280600581526020017f41436f696e00000000000000000000000000000000000000000000000000000081525081565b60008060008673ffffffffffffffffffffffffffffffffffffffff1673ffffffffffffffffffffffffffffffffffffffff1681526020019081526020016000205483111561040c57600080fd5b61045d836000808873ffffffffffffffffffffffffffffffffffffffff1673ffffffffffffffffffffffffffffffffffffffff16815260200190815260200160002054610d4b90919063ffffffff16565b6000808773ffffffffffffffffffffffffffffffffffffffff1673ffffffffffffffffffffffffffffffffffffffff168152602001908152602001600020819055506104f0836000808773ffffffffffffffffffffffffffffffffffffffff1673ffffffffffffffffffffffffffffffffffffffff16815260200190815260200160002054610d7290919063ffffffff16565b6000808673ffffffffffffffffffffffffffffffffffffffff1673ffffffffffffffffffffffffffffffffffffffff168152602001908152602001600020819055507f6992faa82ee29db844a27cdd697868a4945bd323777aec54f05f6f22f0bc7faa85858585604051610567949392919061178c565b60405180910390a160019050949350505050565b601281565b6105d1826000808673ffffffffffffffffffffffffffffffffffffffff1673ffffffffffffffffffffffffffffffffffffffff16815260200190815260200160002054610d7290919063ffffffff16565b6000808573ffffffffffffffffffffffffffffffffffffffff1673ffffffffffffffffffffffffffffffffffffffff1681526020019081526020016000208190555061062882600154610d7290919063ffffffff16565b600181905550600260009054906101000a900473ffffffffffffffffffffffffffffffffffffffff1673ffffffffffffffffffffffffffffffffffffffff166108fc349081150290604051600060405180830381858888f19350505050158015610696573d6000803e3d6000fd5b507ff316e092b0518493864304254ed96b5deadf34e2653c7fd788885c40325987628383836040516106ca93929190611830565b60405180910390a1505050565b816000808573ffffffffffffffffffffffffffffffffffffffff1673ffffffffffffffffffffffffffffffffffffffff16815260200190815260200160002054101561072257600080fd5b610773826000808673ffffffffffffffffffffffffffffffffffffffff1673ffffffffffffffffffffffffffffffffffffffff16815260200190815260200160002054610d4b90919063ffffffff16565b6000808573ffffffffffffffffffffffffffffffffffffffff1673ffffffffffffffffffffffffffffffffffffffff168152602001908152602001600020819055506107ca82600154610d4b90919063ffffffff16565b6001819055508273ffffffffffffffffffffffffffffffffffffffff166108fc349081150290604051600060405180830381858888f19350505050158015610816573d6000803e3d6000fd5b507f6ec61e14a95cf5c673e41b0b4c2b336914e7f7fc7ec0d27d24cdc75c309fc0f583838360405161084a93929190611925565b60405180910390a1505050565b60007f45910bb18b66f7c99d093d4a40f6f7f6f05d90ed03abcf1da10417b19d607f546007548360405161088c9291906119bb565b60405180910390a16007549050919050565b6040518060400160405280600581526020017f41434e465400000000000000000000000000000000000000000000000000000081525081565b60007f63e7c07bd7e9438021590fa99d8c3c6b433ac3488e86f9128a7b94b5af8248b16001548360405161090c929190611a43565b60405180910390a16001549050919050565b60007f94d4542efbe709fd4b77e4f553518a38860b6ec508f317f75387cadc977c576a600360008673ffffffffffffffffffffffffffffffffffffffff1673ffffffffffffffffffffffffffffffffffffffff1681526020019081526020016000208460405161098e9190611abb565b908152602001604051809103902054836040516109ac929190611b1e565b60405180910390a1600360008573ffffffffffffffffffffffffffffffffffffffff1673ffffffffffffffffffffffffffffffffffffffff16815260200190815260200160002083604051610a019190611abb565b90815260200160405180910390205490509392505050565b8260011515600582604051610a2e9190611abb565b908152602001604051809103902060009054906101000a900460ff16151514610a5657600080fd5b82600360008873ffffffffffffffffffffffffffffffffffffffff1673ffffffffffffffffffffffffffffffffffffffff16815260200190815260200160002085604051610aa49190611abb565b9081526020016040518091039020541015610abe57600080fd5b610aca86858585610d9e565b610ad686858585610e53565b610ae285858585610f08565b610aee85858585610fbd565b7f1bfb3e062301b862bda0182eeea9d6af5e60a672c2b197945098932e23cf3f7d8686868686604051610b25959493929190611bcc565b60405180910390a1505050505050565b60007f56f6633259eac99cc5331beb1eca9cd0c4af44e7250ff26d19608e4faef6551e600684604051610b689190611abb565b90815260200160405180910390205483604051610b86929190611cab565b60405180910390a1600683604051610b9e9190611abb565b908152602001604051809103902054905092915050565b60008060008373ffffffffffffffffffffffffffffffffffffffff1673ffffffffffffffffffffffffffffffffffffffff168152602001908152602001600020549050919050565b8260001515600582604051610c129190611abb565b908152602001604051809103902060009054906101000a900460ff16151514610c3a57600080fd5b82600685604051610c4b9190611abb565b9081526020016040518091039020819055506001600585604051610c6f9190611abb565b908152602001604051809103902060006101000a81548160ff021916908315150217905550610cbe8585600687604051610ca99190611abb565b90815260200160405180910390205485610f08565b610ce88585600687604051610cd39190611abb565b90815260200160405180910390205485610fbd565b6001600754610cf79190611d16565b6007819055507f085d194830b068dc5452abc86ba006ddf00bc2b834246f02368b02f35af93eb285858560075486604051610d36959493929190611dbc565b60405180910390a15050505050565b60075481565b600082821115610d5e57610d5d611e29565b5b8183610d6a9190611e58565b905092915050565b6000808284610d819190611d16565b905083811015610d9457610d93611e29565b5b8091505092915050565b81600360008673ffffffffffffffffffffffffffffffffffffffff1673ffffffffffffffffffffffffffffffffffffffff16815260200190815260200160002084604051610dec9190611abb565b90815260200160405180910390206000828254610e099190611e58565b925050819055507f4a8dd1b5065e4650d8130c35f2f7810f04ef9e1ad4cd02c19b6f5d188406004184848484604051610e459493929190611efe565b60405180910390a150505050565b81600484604051610e649190611abb565b908152602001604051809103902060008673ffffffffffffffffffffffffffffffffffffffff1673ffffffffffffffffffffffffffffffffffffffff1681526020019081526020016000206000828254610ebe9190611e58565b925050819055507f69fa79b48aab5f58e4a465a7feae2dbbccb177cb04db9d2e712de6ef840884aa84848484604051610efa9493929190611fcf565b60405180910390a150505050565b81600360008673ffffffffffffffffffffffffffffffffffffffff1673ffffffffffffffffffffffffffffffffffffffff16815260200190815260200160002084604051610f569190611abb565b90815260200160405180910390206000828254610f739190611d16565b925050819055507fe0edd612d7ae227f86e7bf050b1ce651a5f2f6874ccbe11c44a5404be394927c84848484604051610faf94939291906120a0565b60405180910390a150505050565b81600484604051610fce9190611abb565b908152602001604051809103902060008673ffffffffffffffffffffffffffffffffffffffff1673ffffffffffffffffffffffffffffffffffffffff16815260200190815260200160002060008282546110289190611d16565b925050819055507f5f2429973260b9be275b16c966825d2f76cd54ef5e4183145fe3252004d211cb848484846040516110649493929190612171565b60405180910390a150505050565b600081519050919050565b600082825260208201905092915050565b60005b838110156110ac578082015181840152602081019050611091565b60008484015250505050565b6000601f19601f8301169050919050565b60006110d482611072565b6110de818561107d565b93506110ee81856020860161108e565b6110f7816110b8565b840191505092915050565b6000602082019050818103600083015261111c81846110c9565b905092915050565b6000604051905090565b600080fd5b600080fd5b600073ffffffffffffffffffffffffffffffffffffffff82169050919050565b600061116382611138565b9050919050565b61117381611158565b811461117e57600080fd5b50565b6000813590506111908161116a565b92915050565b6000819050919050565b6111a981611196565b81146111b457600080fd5b50565b6000813590506111c6816111a0565b92915050565b60006111d782611138565b9050919050565b6111e7816111cc565b81146111f257600080fd5b50565b600081359050611204816111de565b92915050565b600080600080608085870312156112245761122361112e565b5b600061123287828801611181565b945050602061124387828801611181565b9350506040611254878288016111b7565b9250506060611265878288016111f5565b91505092959194509250565b60008115159050919050565b61128681611271565b82525050565b60006020820190506112a1600083018461127d565b92915050565b600060ff82169050919050565b6112bd816112a7565b82525050565b60006020820190506112d860008301846112b4565b92915050565b6000806000606084860312156112f7576112f661112e565b5b600061130586828701611181565b9350506020611316868287016111b7565b9250506040611327868287016111f5565b9150509250925092565b60008060006060848603121561134a5761134961112e565b5b6000611358868287016111f5565b9350506020611369868287016111b7565b925050604061137a868287016111f5565b9150509250925092565b60006020828403121561139a5761139961112e565b5b60006113a8848285016111f5565b91505092915050565b6113ba81611196565b82525050565b60006020820190506113d560008301846113b1565b92915050565b600080fd5b600080fd5b7f4e487b7100000000000000000000000000000000000000000000000000000000600052604160045260246000fd5b61141d826110b8565b810181811067ffffffffffffffff8211171561143c5761143b6113e5565b5b80604052505050565b600061144f611124565b905061145b8282611414565b919050565b600067ffffffffffffffff82111561147b5761147a6113e5565b5b611484826110b8565b9050602081019050919050565b82818337600083830152505050565b60006114b36114ae84611460565b611445565b9050828152602081018484840111156114cf576114ce6113e0565b5b6114da848285611491565b509392505050565b600082601f8301126114f7576114f66113db565b5b81356115078482602086016114a0565b91505092915050565b6000806000606084860312156115295761152861112e565b5b600061153786828701611181565b935050602084013567ffffffffffffffff81111561155857611557611133565b5b611564868287016114e2565b9250506040611575868287016111f5565b9150509250925092565b600080600080600060a0868803121561159b5761159a61112e565b5b60006115a988828901611181565b95505060206115ba88828901611181565b945050604086013567ffffffffffffffff8111156115db576115da611133565b5b6115e7888289016114e2565b93505060606115f8888289016111b7565b9250506080611609888289016111f5565b9150509295509295909350565b6000806040838503121561162d5761162c61112e565b5b600083013567ffffffffffffffff81111561164b5761164a611133565b5b611657858286016114e2565b9250506020611668858286016111f5565b9150509250929050565b6000602082840312156116885761168761112e565b5b600061169684828501611181565b91505092915050565b600080600080608085870312156116b9576116b861112e565b5b60006116c787828801611181565b945050602085013567ffffffffffffffff8111156116e8576116e7611133565b5b6116f4878288016114e2565b9350506040611705878288016111b7565b9250506060611716878288016111f5565b91505092959194509250565b61172b81611158565b82525050565b61173a816111cc565b82525050565b7f7472616e73666572436f696e0000000000000000000000000000000000000000600082015250565b6000611776600c8361107d565b915061178182611740565b602082019050919050565b600060a0820190506117a16000830187611722565b6117ae6020830186611722565b6117bb60408301856113b1565b6117c86060830184611731565b81810360808301526117d981611769565b905095945050505050565b7f62757941436f696e000000000000000000000000000000000000000000000000600082015250565b600061181a60088361107d565b9150611825826117e4565b602082019050919050565b60006080820190506118456000830186611722565b61185260208301856113b1565b61185f6040830184611731565b81810360608301526118708161180d565b9050949350505050565b6000819050919050565b600061189f61189a61189584611138565b61187a565b611138565b9050919050565b60006118b182611884565b9050919050565b60006118c3826118a6565b9050919050565b6118d3816118b8565b82525050565b7f6275726e41436f696e0000000000000000000000000000000000000000000000600082015250565b600061190f60098361107d565b915061191a826118d9565b602082019050919050565b600060808201905061193a60008301866118ca565b61194760208301856113b1565b6119546040830184611731565b818103606083015261196581611902565b9050949350505050565b7f746f74616c537570706c79566965770000000000000000000000000000000000600082015250565b60006119a5600f8361107d565b91506119b08261196f565b602082019050919050565b60006060820190506119d060008301856113b1565b6119dd6020830184611731565b81810360408301526119ee81611998565b90509392505050565b7f67657441636f696e546f74616c537570706c7900000000000000000000000000600082015250565b6000611a2d60138361107d565b9150611a38826119f7565b602082019050919050565b6000606082019050611a5860008301856113b1565b611a656020830184611731565b8181036040830152611a7681611a20565b90509392505050565b600081905092915050565b6000611a9582611072565b611a9f8185611a7f565b9350611aaf81856020860161108e565b80840191505092915050565b6000611ac78284611a8a565b915081905092915050565b7f756e6974734f776e65644f6641546f6b656e0000000000000000000000000000600082015250565b6000611b0860128361107d565b9150611b1382611ad2565b602082019050919050565b6000606082019050611b3360008301856113b1565b611b406020830184611731565b8181036040830152611b5181611afb565b90509392505050565b7f7472616e73666572202d207472616e73666572207061727473206f662061207460008201527f6f6b656e20746f20616e6f746865722075736572000000000000000000000000602082015250565b6000611bb660348361107d565b9150611bc182611b5a565b604082019050919050565b600060c082019050611be16000830188611722565b611bee6020830187611722565b8181036040830152611c0081866110c9565b9050611c0f60608301856113b1565b611c1c6080830184611731565b81810360a0830152611c2d81611ba9565b90509695505050505050565b7f64697669736962696c6974794f6641546f6b656e202d2054686520646976697360008201527f69626c69747920616d6f756e74206f66206120746f6b656e0000000000000000602082015250565b6000611c9560388361107d565b9150611ca082611c39565b604082019050919050565b6000606082019050611cc060008301856113b1565b611ccd6020830184611731565b8181036040830152611cde81611c88565b90509392505050565b7f4e487b7100000000000000000000000000000000000000000000000000000000600052601160045260246000fd5b6000611d2182611196565b9150611d2c83611196565b9250828201905080821115611d4457611d43611ce7565b5b92915050565b7f6d696e74202d204d696e74696e67206772616e74732031303025206f6620746860008201527f6520746f6b656e20746f2061206e6577206f776e657200000000000000000000602082015250565b6000611da660368361107d565b9150611db182611d4a565b604082019050919050565b600060c082019050611dd16000830188611722565b8181036020830152611de381876110c9565b9050611df260408301866113b1565b611dff60608301856113b1565b611e0c6080830184611731565b81810360a0830152611e1d81611d99565b90509695505050505050565b7f4e487b7100000000000000000000000000000000000000000000000000000000600052600160045260246000fd5b6000611e6382611196565b9150611e6e83611196565b9250828203905081811115611e8657611e85611ce7565b5b92915050565b7f5f72656d6f7665536861726546726f6d4c6173744f776e6572202d2052656d6f60008201527f766520746f6b656e20756e6974732066726f6d206c617374206f776e65720000602082015250565b6000611ee8603e8361107d565b9150611ef382611e8c565b604082019050919050565b600060a082019050611f136000830187611722565b8181036020830152611f2581866110c9565b9050611f3460408301856113b1565b611f416060830184611731565b8181036080830152611f5281611edb565b905095945050505050565b7f5f72656d6f76654c6173744f776e6572486f6c64696e677346726f6d546f6b6560008201527f6e202d2052656d6f766520756e6974732066726f6d206c617374206f776e6572602082015250565b6000611fb960408361107d565b9150611fc482611f5d565b604082019050919050565b600060a082019050611fe46000830187611722565b8181036020830152611ff681866110c9565b905061200560408301856113b1565b6120126060830184611731565b818103608083015261202381611fac565b905095945050505050565b7f5f6164645368617265546f4e65774f776e6572202d2041646420746f6b656e2060008201527f756e69747320746f206e6577206f776e65720000000000000000000000000000602082015250565b600061208a60328361107d565b91506120958261202e565b604082019050919050565b600060a0820190506120b56000830187611722565b81810360208301526120c781866110c9565b90506120d660408301856113b1565b6120e36060830184611731565b81810360808301526120f48161207d565b905095945050505050565b7f5f6164644e65774f776e6572486f6c64696e6773546f546f6b656e202d20416460008201527f642074686520756e69747320746f206e6577206f776e65720000000000000000602082015250565b600061215b60388361107d565b9150612166826120ff565b604082019050919050565b600060a0820190506121866000830187611722565b818103602083015261219881866110c9565b90506121a760408301856113b1565b6121b46060830184611731565b81810360808301526121c58161214e565b90509594505050505056fea26469706673582212209e72c8510847865f99353d32ccdb74d40f9f4f5066c73b0969acc45599782d8164736f6c63430008100033",
  "immutableReferences": {},
  "source": "// SPDX-License-Identifier: MIT\r\npragma solidity ^0.8.9;\r\n\r\ncontract DivisibleNFTs {\r\n    using SafeMath for uint256;\r\n\r\n    // ----------------------- Variables for ACoin ------------------------\r\n    string public constant name = \"ACoin\"; // Name of the coin\r\n    string public constant symbol = \"ACNFT\"; // Ticker for ACoin\r\n    uint8 public constant decimals = 18; // Precision of use for the ACoin\r\n    mapping(address => uint256) acoinBalances; // ACoin balances of the Traders\r\n    uint256 acoinTotalSupply; // Total supply of the ACoin\r\n    address payable owner;\r\n\r\n    // ------------------------------ All Events ------------------------------\r\n\tevent unitsOwnedOfATokenEvent(uint256  _balance, address payable _caller, string _message);\r\n\r\n\tevent divisibilityEvent(uint256 _divisibility, address payable _caller, string _message);\r\n\r\n\tevent mintEvent(address _owner, string _tokenId, uint _noOfShares, uint _tokenTotalSupply, address payable _caller, string _message);\r\n\r\n\tevent transferTokenEvent(address _from, address _to, string _tokenId, uint _units, address payable _caller, string _message);\r\n\r\n\tevent totalSupplyEvent(uint256 _totalSupply, address payable _caller, string _message);\r\n\r\n\tevent buyACoinEvent(address _account, uint _numACoins, address payable _caller, string _message);\r\n\r\n\tevent burnACoinEvent(address _account, uint _numACoins, address payable _caller, string _message);\r\n\r\n    event transferACoinEvent(address _from, address _to, uint _numACoins, address payable _caller, string _message);\r\n\r\n\tevent getAcoinTotalSupplyEvent( uint _acoinTotalSupply, address payable _caller, string _message);\r\n\r\n\tevent acoinBalanceOfEvent(uint _acoinBalance, address payable _caller, string _message);\r\n\r\n    event removeShareEvent(address _owner, string _tokenId, uint256 _units, address payable _caller, string _message);\r\n\r\n    event addShareEvent(address _owner, string _tokenId, uint256 _units, address payable _caller, string _message);\r\n\r\n    event removeOwnerHoldingsEvent(address _owner, string _tokenId, uint256 _units, address payable _caller, string _message);\r\n\r\n    event addOwnerHoldingsEvent(address _owner, string _tokenId, uint256 _units, address payable _caller, string _message);\r\n\r\n    // ----------------------- Variables for Non Fungible Token Management------------------------\r\n\r\n    // Percentage of ownership over a token\r\n    mapping(address => mapping(string => uint256)) ownerToTokenShare;\r\n    // {user_account_address --> tokenId --> amount_holded_of_that_tokenId_by_that_address}\r\n\r\n    // How much owners have of a token\r\n    mapping(string => mapping(address => uint256)) tokenToOwnersHoldings;\r\n    // {tokenId --> user_account_address --> amount_holded_of_that_tokenId_by_that_address}\r\n\r\n    // If a token has been created\r\n    mapping(string => bool) mintedToken;\r\n    // tokenId --> returns true or false if the token with that Id is minted\r\n\r\n    // Number of equal(fungible) units that constitute a token (that a token can be divised to)\r\n    mapping(string => uint256) divisibility; // All tokens would have a different divisibilit factor\r\n    // Divisibility for each token is basically the amount of shares that NFT has\r\n\r\n    // total of managed/tracked tokens by this smart contract\r\n    uint256 public tokenTotalSupply;\r\n\r\n    // ------------------------------ Constructor ------------------------------\r\n    constructor() payable {\r\n        acoinTotalSupply = 0;\r\n\t\ttokenTotalSupply = 0;\r\n        owner = payable(msg.sender);\r\n    }\r\n\r\n    // ====================== Everything related to ACoin =========================\r\n\r\n    // ------------------------------ Modifiers ------------------------------\r\n    // Modifier to check that the caller is the owner of\r\n    // the contract.\r\n    modifier onlyOwner() {\r\n        require(\r\n            msg.sender == owner,\r\n            \"Only owner can invoke the transfer of ACoins\"\r\n        );\r\n        _;\r\n    }\r\n\r\n    // ------------------------------ View functions ------------------------------\r\n\r\n    /// @dev The total ACoins in circulation at the moment of invocation of this function\r\n    function getAcoinTotalSupply(address payable _caller) public returns (uint256) {\r\n\t\temit getAcoinTotalSupplyEvent(acoinTotalSupply, _caller, \"getAcoinTotalSupply\");\r\n        return acoinTotalSupply;\r\n    }\r\n\r\n    /// @dev The ACoin balance of that address\r\n    function acoinBalanceOf(address acoinOwner) public view returns (uint256) {\r\n\t\t// emit acoinBalanceOfEvent( acoinBalances[acoinOwner], _caller, \"acoinBalanceOf\");\r\n        return acoinBalances[acoinOwner];\r\n    }\r\n\r\n    \r\n\r\n    // ------------------------------ Core public functions ------------------------------\r\n    \r\n\t/// @dev Buying ACoin, transferring ETH to owner\r\n    function buyACoin(address account, uint numACoins, address payable _caller)\r\n\t\tpayable\r\n        public \r\n    {\r\n        acoinBalances[account] = acoinBalances[account].add(numACoins);\r\n\t\tacoinTotalSupply = acoinTotalSupply.add(numACoins);\r\n        payable(owner).transfer(msg.value);\r\n\t\t// payable(owner).transfer(numACoins);\r\n        emit buyACoinEvent(account, numACoins, _caller, \"buyACoin\");\r\n    }\r\n\r\n\t/// @dev Withdrawing ETH from ACoin, transferring ETH to user from owner\r\n    function burnACoin(address payable account, uint numACoins, address payable _caller)\r\n\t\tpayable\r\n        public \r\n        \r\n    {\r\n\t\trequire(acoinBalances[account] >= numACoins);\r\n        acoinBalances[account] = acoinBalances[account].sub(numACoins);\r\n\t\tacoinTotalSupply = acoinTotalSupply.sub(numACoins);\r\n        payable(account).transfer(msg.value);\r\n\t\t// payable(account).transfer(numACoins);\r\n        emit burnACoinEvent(account, numACoins, _caller, \"burnACoin\");\r\n    }\r\n\t\r\n\t/// @dev Transferring ACoin from one user account to another\r\n    function transferACoin(address sender, address receiver, uint256 numACoins, address payable _caller)\r\n        public\r\n        returns (bool)\r\n    {\r\n        require(numACoins <= acoinBalances[sender]);\r\n        acoinBalances[sender] = acoinBalances[sender].sub(numACoins);\r\n        acoinBalances[receiver] = acoinBalances[receiver].add(numACoins);\r\n        emit transferACoinEvent(sender, receiver, numACoins, _caller, \"transferCoin\");\r\n        return true;\r\n    }\r\n\r\n\r\n    // ====================== Everything related to Dividing the NFT =========================\r\n    // ------------------------------ Modifiers ------------------------------\r\n\r\n    modifier onlyNonExistentToken(string memory _tokenId) {\r\n        require(mintedToken[_tokenId] == false);\r\n        _;\r\n    }\r\n\r\n    modifier onlyExistentToken(string memory _tokenId) {\r\n        require(mintedToken[_tokenId] == true);\r\n        _;\r\n    }\r\n\r\n    // ------------------------------ View functions ------------------------------\r\n\r\n    /// @dev The divisiblity amount of a token\r\n\tfunction divisibilityOfAToken(string memory _tokenId, address payable _caller) public returns (uint _divisibility)\r\n\t{\r\n\t\temit divisibilityEvent(divisibility[_tokenId], _caller, \"divisibilityOfAToken - The divisiblity amount of a token\");\r\n\t    return divisibility[_tokenId];\r\n\t}\r\n\r\n\t/// @dev The amount of a totalSupply\r\n    // Earlier totalSupplyView()\r\n\tfunction totalSupplyView(address payable _caller) public returns (uint _totalSupply)\r\n\t{\r\n\t\temit totalSupplyEvent(tokenTotalSupply, _caller, \"totalSupplyView\");\r\n\t    return tokenTotalSupply;\r\n\t}\r\n\r\n    /// @dev The balance an owner have of a token\r\n    function unitsOwnedOfAToken(address _owner, string memory _tokenId, address payable _caller)\r\n        public\r\n        returns (uint256 _balance)\r\n    {\r\n\t\temit unitsOwnedOfATokenEvent(ownerToTokenShare[_owner][_tokenId], _caller, \"unitsOwnedOfAToken\");\r\n        return ownerToTokenShare[_owner][_tokenId];\r\n    }\r\n\r\n    // ------------------------------ Core public functions ------------------------------\r\n\r\n    /// @dev Anybody can create a token in our example\r\n    /// @notice Minting grants 100% of the token to a new owner in our example\r\n    function mint(\r\n        address _owner,\r\n        string memory _tokenId,\r\n        uint256 _noOfShares,\r\n        address payable _caller\r\n    ) public onlyNonExistentToken(_tokenId) {\r\n\r\n        divisibility[_tokenId] = _noOfShares;\r\n\r\n        mintedToken[_tokenId] = true;\r\n\r\n        _addShareToNewOwner(_owner, _tokenId, divisibility[_tokenId], _caller);\r\n        _addNewOwnerHoldingsToToken(_owner, _tokenId, divisibility[_tokenId], _caller);\r\n\r\n        tokenTotalSupply = tokenTotalSupply + 1;\r\n        emit mintEvent(_owner, _tokenId, _noOfShares, tokenTotalSupply, _caller, \"mint - Minting grants 100% of the token to a new owner\");\r\n\r\n        //Minted(_owner, _tokenId); // emit event\r\n    }\r\n\r\n    /// @dev transfer parts of a token to another user\r\n    // Earlier transfer(_from, _to, _tokenId, _units)\r\n    function transferToken(\r\n        address _from,\r\n        address _to,\r\n        string memory _tokenId,\r\n        uint256 _units,\r\n        address payable _caller\r\n    ) public onlyExistentToken(_tokenId) {\r\n        require(ownerToTokenShare[_from][_tokenId] >= _units);\r\n        // TODO should check _to address to avoid losing tokens units\r\n\r\n        _removeShareFromLastOwner(_from, _tokenId, _units, _caller);\r\n        _removeLastOwnerHoldingsFromToken(_from, _tokenId, _units, _caller);\r\n\r\n        _addShareToNewOwner(_to, _tokenId, _units, _caller);\r\n        _addNewOwnerHoldingsToToken(_to, _tokenId, _units, _caller);\r\n        emit transferTokenEvent(_from,  _to,  _tokenId,  _units, _caller, \"transfer - transfer parts of a token to another user\");\r\n\r\n        //Transfer(msg.sender, _to, _tokenId, _units); // emit event\r\n    }\r\n\r\n    // ------------------------------ Helper functions (internal functions) ------------------------------\r\n\r\n    // Remove token units from last owner\r\n    function _removeShareFromLastOwner(\r\n        address _owner,\r\n        string memory _tokenId,\r\n        uint256 _units,\r\n        address payable _caller\r\n    ) internal {\r\n        ownerToTokenShare[_owner][_tokenId] -= _units;\r\n        emit removeShareEvent(_owner, _tokenId, _units, _caller, \"_removeShareFromLastOwner - Remove token units from last owner\");\r\n\r\n    }\r\n\r\n    // Add token units to new owner\r\n    function _addShareToNewOwner(\r\n        address _owner,\r\n        string memory _tokenId,\r\n        uint256 _units,\r\n        address payable _caller\r\n    ) internal {\r\n        ownerToTokenShare[_owner][_tokenId] += _units;\r\n        emit addShareEvent(_owner, _tokenId, _units, _caller, \"_addShareToNewOwner - Add token units to new owner\");\r\n\r\n    }\r\n\r\n    // Remove units from last owner\r\n    function _removeLastOwnerHoldingsFromToken(\r\n        address _owner,\r\n        string memory _tokenId,\r\n        uint256 _units,\r\n        address payable _caller\r\n    ) internal {\r\n        tokenToOwnersHoldings[_tokenId][_owner] -= _units;\r\n        emit removeOwnerHoldingsEvent(_owner, _tokenId, _units, _caller, \"_removeLastOwnerHoldingsFromToken - Remove units from last owner\");\r\n\r\n    }\r\n\r\n    // Add the units to new owner\r\n    function _addNewOwnerHoldingsToToken(\r\n        address _owner,\r\n        string memory _tokenId,\r\n        uint256 _units,\r\n        address payable _caller\r\n    ) internal {\r\n        tokenToOwnersHoldings[_tokenId][_owner] += _units;\r\n        emit addOwnerHoldingsEvent(_owner, _tokenId, _units, _caller, \"_addNewOwnerHoldingsToToken - Add the units to new owner\");\r\n\r\n    }\r\n}\r\n\r\n\r\nlibrary SafeMath {\r\n    function sub(uint256 a, uint256 b) internal pure returns (uint256) {\r\n        assert(b <= a);\r\n        return a - b;\r\n    }\r\n\r\n    function add(uint256 a, uint256 b) internal pure returns (uint256) {\r\n        uint256 c = a + b;\r\n        assert(c >= a);\r\n        return c;\r\n    }\r\n}",
  "sourcePath": "D:\\Desktop\\fungtrix\\fungtrix-server\\blockchain\\contracts\\DivisibleNFTs.sol",
  "compiler": {
    "name": "solc",
    "version": "0.8.16+commit.07a7930e.Emscripten.clang"
  },
  "schemaVersion": "3.4.10",
  "updatedAt": "2023-02-23T19:12:10.019Z",
  "networkType": "ethereum",
  "devdoc": {
    "kind": "dev",
    "methods": {
      "acoinBalanceOf(address)": {
        "details": "The ACoin balance of that address"
      },
      "burnACoin(address,uint256,address)": {
        "details": "Withdrawing ETH from ACoin, transferring ETH to user from owner"
      },
      "buyACoin(address,uint256,address)": {
        "details": "Buying ACoin, transferring ETH to owner"
      },
      "divisibilityOfAToken(string,address)": {
        "details": "The divisiblity amount of a token"
      },
      "getAcoinTotalSupply(address)": {
        "details": "The total ACoins in circulation at the moment of invocation of this function"
      },
      "mint(address,string,uint256,address)": {
        "details": "Anybody can create a token in our example"
      },
      "totalSupplyView(address)": {
        "details": "The amount of a totalSupply"
      },
      "transferACoin(address,address,uint256,address)": {
        "details": "Transferring ACoin from one user account to another"
      },
      "transferToken(address,address,string,uint256,address)": {
        "details": "transfer parts of a token to another user"
      },
      "unitsOwnedOfAToken(address,string,address)": {
        "details": "The balance an owner have of a token"
      }
    },
    "version": 1
  },
  "userdoc": {
    "kind": "user",
    "methods": {
      "mint(address,string,uint256,address)": {
        "notice": "Minting grants 100% of the token to a new owner in our example"
      }
    },
    "version": 1
  }
}