{
  "contractName": "DivisibleNFTs",
  "abi": [
    {
      "inputs": [],
      "stateMutability": "payable",
      "type": "constructor",
      "payable": true
    },
    {
      "anonymous": false,
      "inputs": [
        {
          "indexed": false,
          "internalType": "uint256",
          "name": "_acoinBalance",
          "type": "uint256"
        },
        {
          "indexed": false,
          "internalType": "address payable",
          "name": "_caller",
          "type": "address"
        },
        {
          "indexed": false,
          "internalType": "string",
          "name": "_message",
          "type": "string"
        }
      ],
      "name": "acoinBalanceOfEvent",
      "type": "event"
    },
    {
      "anonymous": false,
      "inputs": [
        {
          "indexed": false,
          "internalType": "address",
          "name": "_owner",
          "type": "address"
        },
        {
          "indexed": false,
          "internalType": "string",
          "name": "_tokenId",
          "type": "string"
        },
        {
          "indexed": false,
          "internalType": "uint256",
          "name": "_units",
          "type": "uint256"
        },
        {
          "indexed": false,
          "internalType": "address payable",
          "name": "_caller",
          "type": "address"
        },
        {
          "indexed": false,
          "internalType": "string",
          "name": "_message",
          "type": "string"
        }
      ],
      "name": "addOwnerHoldingsEvent",
      "type": "event"
    },
    {
      "anonymous": false,
      "inputs": [
        {
          "indexed": false,
          "internalType": "address",
          "name": "_owner",
          "type": "address"
        },
        {
          "indexed": false,
          "internalType": "string",
          "name": "_tokenId",
          "type": "string"
        },
        {
          "indexed": false,
          "internalType": "uint256",
          "name": "_units",
          "type": "uint256"
        },
        {
          "indexed": false,
          "internalType": "address payable",
          "name": "_caller",
          "type": "address"
        },
        {
          "indexed": false,
          "internalType": "string",
          "name": "_message",
          "type": "string"
        }
      ],
      "name": "addShareEvent",
      "type": "event"
    },
    {
      "anonymous": false,
      "inputs": [
        {
          "indexed": false,
          "internalType": "address",
          "name": "_account",
          "type": "address"
        },
        {
          "indexed": false,
          "internalType": "uint256",
          "name": "_numACoins",
          "type": "uint256"
        },
        {
          "indexed": false,
          "internalType": "address payable",
          "name": "_caller",
          "type": "address"
        },
        {
          "indexed": false,
          "internalType": "string",
          "name": "_message",
          "type": "string"
        }
      ],
      "name": "burnACoinEvent",
      "type": "event"
    },
    {
      "anonymous": false,
      "inputs": [
        {
          "indexed": false,
          "internalType": "address",
          "name": "_account",
          "type": "address"
        },
        {
          "indexed": false,
          "internalType": "uint256",
          "name": "_numACoins",
          "type": "uint256"
        },
        {
          "indexed": false,
          "internalType": "address payable",
          "name": "_caller",
          "type": "address"
        },
        {
          "indexed": false,
          "internalType": "string",
          "name": "_message",
          "type": "string"
        }
      ],
      "name": "buyACoinEvent",
      "type": "event"
    },
    {
      "anonymous": false,
      "inputs": [
        {
          "indexed": false,
          "internalType": "uint256",
          "name": "_divisibility",
          "type": "uint256"
        },
        {
          "indexed": false,
          "internalType": "address payable",
          "name": "_caller",
          "type": "address"
        },
        {
          "indexed": false,
          "internalType": "string",
          "name": "_message",
          "type": "string"
        }
      ],
      "name": "divisibilityEvent",
      "type": "event"
    },
    {
      "anonymous": false,
      "inputs": [
        {
          "indexed": false,
          "internalType": "uint256",
          "name": "_acoinTotalSupply",
          "type": "uint256"
        },
        {
          "indexed": false,
          "internalType": "address payable",
          "name": "_caller",
          "type": "address"
        },
        {
          "indexed": false,
          "internalType": "string",
          "name": "_message",
          "type": "string"
        }
      ],
      "name": "getAcoinTotalSupplyEvent",
      "type": "event"
    },
    {
      "anonymous": false,
      "inputs": [
        {
          "indexed": false,
          "internalType": "address",
          "name": "_owner",
          "type": "address"
        },
        {
          "indexed": false,
          "internalType": "string",
          "name": "_tokenId",
          "type": "string"
        },
        {
          "indexed": false,
          "internalType": "uint256",
          "name": "_noOfShares",
          "type": "uint256"
        },
        {
          "indexed": false,
          "internalType": "uint256",
          "name": "_tokenTotalSupply",
          "type": "uint256"
        },
        {
          "indexed": false,
          "internalType": "address payable",
          "name": "_caller",
          "type": "address"
        },
        {
          "indexed": false,
          "internalType": "string",
          "name": "_message",
          "type": "string"
        }
      ],
      "name": "mintEvent",
      "type": "event"
    },
    {
      "anonymous": false,
      "inputs": [
        {
          "indexed": false,
          "internalType": "address",
          "name": "_owner",
          "type": "address"
        },
        {
          "indexed": false,
          "internalType": "string",
          "name": "_tokenId",
          "type": "string"
        },
        {
          "indexed": false,
          "internalType": "uint256",
          "name": "_units",
          "type": "uint256"
        },
        {
          "indexed": false,
          "internalType": "address payable",
          "name": "_caller",
          "type": "address"
        },
        {
          "indexed": false,
          "internalType": "string",
          "name": "_message",
          "type": "string"
        }
      ],
      "name": "removeOwnerHoldingsEvent",
      "type": "event"
    },
    {
      "anonymous": false,
      "inputs": [
        {
          "indexed": false,
          "internalType": "address",
          "name": "_owner",
          "type": "address"
        },
        {
          "indexed": false,
          "internalType": "string",
          "name": "_tokenId",
          "type": "string"
        },
        {
          "indexed": false,
          "internalType": "uint256",
          "name": "_units",
          "type": "uint256"
        },
        {
          "indexed": false,
          "internalType": "address payable",
          "name": "_caller",
          "type": "address"
        },
        {
          "indexed": false,
          "internalType": "string",
          "name": "_message",
          "type": "string"
        }
      ],
      "name": "removeShareEvent",
      "type": "event"
    },
    {
      "anonymous": false,
      "inputs": [
        {
          "indexed": false,
          "internalType": "uint256",
          "name": "_totalSupply",
          "type": "uint256"
        },
        {
          "indexed": false,
          "internalType": "address payable",
          "name": "_caller",
          "type": "address"
        },
        {
          "indexed": false,
          "internalType": "string",
          "name": "_message",
          "type": "string"
        }
      ],
      "name": "totalSupplyEvent",
      "type": "event"
    },
    {
      "anonymous": false,
      "inputs": [
        {
          "indexed": false,
          "internalType": "address",
          "name": "_from",
          "type": "address"
        },
        {
          "indexed": false,
          "internalType": "address",
          "name": "_to",
          "type": "address"
        },
        {
          "indexed": false,
          "internalType": "uint256",
          "name": "_numACoins",
          "type": "uint256"
        },
        {
          "indexed": false,
          "internalType": "address payable",
          "name": "_caller",
          "type": "address"
        },
        {
          "indexed": false,
          "internalType": "string",
          "name": "_message",
          "type": "string"
        }
      ],
      "name": "transferACoinEvent",
      "type": "event"
    },
    {
      "anonymous": false,
      "inputs": [
        {
          "indexed": false,
          "internalType": "address",
          "name": "_from",
          "type": "address"
        },
        {
          "indexed": false,
          "internalType": "address",
          "name": "_to",
          "type": "address"
        },
        {
          "indexed": false,
          "internalType": "string",
          "name": "_tokenId",
          "type": "string"
        },
        {
          "indexed": false,
          "internalType": "uint256",
          "name": "_units",
          "type": "uint256"
        },
        {
          "indexed": false,
          "internalType": "address payable",
          "name": "_caller",
          "type": "address"
        },
        {
          "indexed": false,
          "internalType": "string",
          "name": "_message",
          "type": "string"
        }
      ],
      "name": "transferTokenEvent",
      "type": "event"
    },
    {
      "anonymous": false,
      "inputs": [
        {
          "indexed": false,
          "internalType": "uint256",
          "name": "_balance",
          "type": "uint256"
        },
        {
          "indexed": false,
          "internalType": "address payable",
          "name": "_caller",
          "type": "address"
        },
        {
          "indexed": false,
          "internalType": "string",
          "name": "_message",
          "type": "string"
        }
      ],
      "name": "unitsOwnedOfATokenEvent",
      "type": "event"
    },
    {
      "inputs": [],
      "name": "decimals",
      "outputs": [
        {
          "internalType": "uint8",
          "name": "",
          "type": "uint8"
        }
      ],
      "stateMutability": "view",
      "type": "function",
      "constant": true
    },
    {
      "inputs": [],
      "name": "name",
      "outputs": [
        {
          "internalType": "string",
          "name": "",
          "type": "string"
        }
      ],
      "stateMutability": "view",
      "type": "function",
      "constant": true
    },
    {
      "inputs": [],
      "name": "symbol",
      "outputs": [
        {
          "internalType": "string",
          "name": "",
          "type": "string"
        }
      ],
      "stateMutability": "view",
      "type": "function",
      "constant": true
    },
    {
      "inputs": [],
      "name": "tokenTotalSupply",
      "outputs": [
        {
          "internalType": "uint256",
          "name": "",
          "type": "uint256"
        }
      ],
      "stateMutability": "view",
      "type": "function",
      "constant": true
    },
    {
      "inputs": [],
      "name": "getAcoinTotalSupply",
      "outputs": [
        {
          "internalType": "uint256",
          "name": "",
          "type": "uint256"
        }
      ],
      "stateMutability": "view",
      "type": "function",
      "constant": true
    },
    {
      "inputs": [
        {
          "internalType": "address",
          "name": "acoinOwner",
          "type": "address"
        }
      ],
      "name": "acoinBalanceOf",
      "outputs": [
        {
          "internalType": "uint256",
          "name": "",
          "type": "uint256"
        }
      ],
      "stateMutability": "view",
      "type": "function",
      "constant": true
    },
    {
      "inputs": [
        {
          "internalType": "address",
          "name": "account",
          "type": "address"
        },
        {
          "internalType": "uint256",
          "name": "numACoins",
          "type": "uint256"
        },
        {
          "internalType": "address payable",
          "name": "_caller",
          "type": "address"
        }
      ],
      "name": "buyACoin",
      "outputs": [],
      "stateMutability": "payable",
      "type": "function",
      "payable": true
    },
    {
      "inputs": [
        {
          "internalType": "address payable",
          "name": "account",
          "type": "address"
        },
        {
          "internalType": "uint256",
          "name": "numACoins",
          "type": "uint256"
        },
        {
          "internalType": "address payable",
          "name": "_caller",
          "type": "address"
        }
      ],
      "name": "burnACoin",
      "outputs": [],
      "stateMutability": "payable",
      "type": "function",
      "payable": true
    },
    {
      "inputs": [
        {
          "internalType": "address",
          "name": "sender",
          "type": "address"
        },
        {
          "internalType": "address",
          "name": "receiver",
          "type": "address"
        },
        {
          "internalType": "uint256",
          "name": "numACoins",
          "type": "uint256"
        },
        {
          "internalType": "address payable",
          "name": "_caller",
          "type": "address"
        }
      ],
      "name": "transferACoin",
      "outputs": [
        {
          "internalType": "bool",
          "name": "",
          "type": "bool"
        }
      ],
      "stateMutability": "nonpayable",
      "type": "function"
    },
    {
      "inputs": [
        {
          "internalType": "string",
          "name": "_tokenId",
          "type": "string"
        }
      ],
      "name": "divisibilityOfAToken",
      "outputs": [
        {
          "internalType": "uint256",
          "name": "_divisibility",
          "type": "uint256"
        }
      ],
      "stateMutability": "view",
      "type": "function",
      "constant": true
    },
    {
      "inputs": [
        {
          "internalType": "string[]",
          "name": "_tokenIds",
          "type": "string[]"
        }
      ],
      "name": "divisibilityOfTokens",
      "outputs": [
        {
          "internalType": "uint256[]",
          "name": "_divisiblities",
          "type": "uint256[]"
        }
      ],
      "stateMutability": "view",
      "type": "function",
      "constant": true
    },
    {
      "inputs": [],
      "name": "totalSupplyView",
      "outputs": [
        {
          "internalType": "uint256",
          "name": "_totalSupply",
          "type": "uint256"
        }
      ],
      "stateMutability": "view",
      "type": "function",
      "constant": true
    },
    {
      "inputs": [
        {
          "internalType": "address",
          "name": "_owner",
          "type": "address"
        },
        {
          "internalType": "string",
          "name": "_tokenId",
          "type": "string"
        }
      ],
      "name": "unitsOwnedOfAToken",
      "outputs": [
        {
          "internalType": "uint256",
          "name": "_balance",
          "type": "uint256"
        }
      ],
      "stateMutability": "view",
      "type": "function",
      "constant": true
    },
    {
      "inputs": [
        {
          "internalType": "address",
          "name": "_owner",
          "type": "address"
        },
        {
          "internalType": "string",
          "name": "_tokenId",
          "type": "string"
        },
        {
          "internalType": "uint256",
          "name": "_noOfShares",
          "type": "uint256"
        },
        {
          "internalType": "address payable",
          "name": "_caller",
          "type": "address"
        }
      ],
      "name": "mint",
      "outputs": [],
      "stateMutability": "nonpayable",
      "type": "function"
    },
    {
      "inputs": [
        {
          "internalType": "address",
          "name": "_from",
          "type": "address"
        },
        {
          "internalType": "address",
          "name": "_to",
          "type": "address"
        },
        {
          "internalType": "string",
          "name": "_tokenId",
          "type": "string"
        },
        {
          "internalType": "uint256",
          "name": "_units",
          "type": "uint256"
        },
        {
          "internalType": "address payable",
          "name": "_caller",
          "type": "address"
        }
      ],
      "name": "transferToken",
      "outputs": [],
      "stateMutability": "nonpayable",
      "type": "function"
    }
  ],
  "bytecode": "0x60806040526000600181905550600060078190555033600260006101000a81548173ffffffffffffffffffffffffffffffffffffffff021916908373ffffffffffffffffffffffffffffffffffffffff160217905550612181806100646000396000f3fe6080604052600436106100e85760003560e01c806395d89b411161008a578063da32fcc811610059578063da32fcc8146102dc578063dcecd15214610319578063edc6fb6d14610356578063f7abab9e1461037f576100e8565b806395d89b411461020e578063ad6a592614610239578063bb559b1b14610276578063bba9ea44146102b3576100e8565b8063313ce567116100c6578063313ce567146101805780637898cd18146101ab5780637f11f448146101d65780638b652d17146101f2576100e8565b806306fdde03146100ed5780630e4156ed146101185780631fdb3b9914610143575b600080fd5b3480156100f957600080fd5b506101026103aa565b60405161010f9190611090565b60405180910390f35b34801561012457600080fd5b5061012d6103e3565b60405161013a91906110cb565b60405180910390f35b34801561014f57600080fd5b5061016a600480360381019061016591906111c2565b6103ed565b6040516101779190611244565b60405180910390f35b34801561018c57600080fd5b506101956105a9565b6040516101a2919061127b565b60405180910390f35b3480156101b757600080fd5b506101c06105ae565b6040516101cd91906110cb565b60405180910390f35b6101f060048036038101906101eb9190611296565b6105b8565b005b61020c600480360381019061020791906112e9565b61070f565b005b34801561021a57600080fd5b5061022361088f565b6040516102309190611090565b60405180910390f35b34801561024557600080fd5b50610260600480360381019061025b9190611557565b6108c8565b60405161026d919061165e565b60405180910390f35b34801561028257600080fd5b5061029d60048036038101906102989190611680565b610999565b6040516102aa91906110cb565b60405180910390f35b3480156102bf57600080fd5b506102da60048036038101906102d591906116dc565b6109ff565b005b3480156102e857600080fd5b5061030360048036038101906102fe9190611773565b610b1b565b60405161031091906110cb565b60405180910390f35b34801561032557600080fd5b50610340600480360381019061033b91906117a0565b610b63565b60405161034d91906110cb565b60405180910390f35b34801561036257600080fd5b5061037d600480360381019061037891906117e9565b610b8b565b005b34801561038b57600080fd5b50610394610cd3565b6040516103a191906110cb565b60405180910390f35b6040518060400160405280600581526020017f41436f696e00000000000000000000000000000000000000000000000000000081525081565b6000600154905090565b60008060008673ffffffffffffffffffffffffffffffffffffffff1673ffffffffffffffffffffffffffffffffffffffff1681526020019081526020016000205483111561043a57600080fd5b61048b836000808873ffffffffffffffffffffffffffffffffffffffff1673ffffffffffffffffffffffffffffffffffffffff16815260200190815260200160002054610cd990919063ffffffff16565b6000808773ffffffffffffffffffffffffffffffffffffffff1673ffffffffffffffffffffffffffffffffffffffff1681526020019081526020016000208190555061051e836000808773ffffffffffffffffffffffffffffffffffffffff1673ffffffffffffffffffffffffffffffffffffffff16815260200190815260200160002054610d0090919063ffffffff16565b6000808673ffffffffffffffffffffffffffffffffffffffff1673ffffffffffffffffffffffffffffffffffffffff168152602001908152602001600020819055507f6992faa82ee29db844a27cdd697868a4945bd323777aec54f05f6f22f0bc7faa8585858560405161059594939291906118d6565b60405180910390a160019050949350505050565b601281565b6000600754905090565b610609826000808673ffffffffffffffffffffffffffffffffffffffff1673ffffffffffffffffffffffffffffffffffffffff16815260200190815260200160002054610d0090919063ffffffff16565b6000808573ffffffffffffffffffffffffffffffffffffffff1673ffffffffffffffffffffffffffffffffffffffff1681526020019081526020016000208190555061066082600154610d0090919063ffffffff16565b600181905550600260009054906101000a900473ffffffffffffffffffffffffffffffffffffffff1673ffffffffffffffffffffffffffffffffffffffff166108fc349081150290604051600060405180830381858888f193505050501580156106ce573d6000803e3d6000fd5b507ff316e092b0518493864304254ed96b5deadf34e2653c7fd788885c40325987628383836040516107029392919061197a565b60405180910390a1505050565b816000808573ffffffffffffffffffffffffffffffffffffffff1673ffffffffffffffffffffffffffffffffffffffff16815260200190815260200160002054101561075a57600080fd5b6107ab826000808673ffffffffffffffffffffffffffffffffffffffff1673ffffffffffffffffffffffffffffffffffffffff16815260200190815260200160002054610cd990919063ffffffff16565b6000808573ffffffffffffffffffffffffffffffffffffffff1673ffffffffffffffffffffffffffffffffffffffff1681526020019081526020016000208190555061080282600154610cd990919063ffffffff16565b6001819055508273ffffffffffffffffffffffffffffffffffffffff166108fc349081150290604051600060405180830381858888f1935050505015801561084e573d6000803e3d6000fd5b507f6ec61e14a95cf5c673e41b0b4c2b336914e7f7fc7ec0d27d24cdc75c309fc0f583838360405161088293929190611a6f565b60405180910390a1505050565b6040518060400160405280600581526020017f41434e465400000000000000000000000000000000000000000000000000000081525081565b60606000825167ffffffffffffffff8111156108e7576108e6611341565b5b6040519080825280602002602001820160405280156109155781602001602082028036833780820191505090505b50905060005b835181101561098f57600684828151811061093957610938611ab9565b5b602002602001015160405161094e9190611b24565b9081526020016040518091039020548282815181106109705761096f611ab9565b5b602002602001018181525050808061098790611b6a565b91505061091b565b5080915050919050565b6000600360008473ffffffffffffffffffffffffffffffffffffffff1673ffffffffffffffffffffffffffffffffffffffff168152602001908152602001600020826040516109e89190611b24565b908152602001604051809103902054905092915050565b8260011515600582604051610a149190611b24565b908152602001604051809103902060009054906101000a900460ff16151514610a3c57600080fd5b82600360008873ffffffffffffffffffffffffffffffffffffffff1673ffffffffffffffffffffffffffffffffffffffff16815260200190815260200160002085604051610a8a9190611b24565b9081526020016040518091039020541015610aa457600080fd5b610ab086858585610d2c565b610abc86858585610de1565b610ac885858585610e96565b610ad485858585610f4b565b7f1bfb3e062301b862bda0182eeea9d6af5e60a672c2b197945098932e23cf3f7d8686868686604051610b0b959493929190611c24565b60405180910390a1505050505050565b60008060008373ffffffffffffffffffffffffffffffffffffffff1673ffffffffffffffffffffffffffffffffffffffff168152602001908152602001600020549050919050565b6000600682604051610b759190611b24565b9081526020016040518091039020549050919050565b8260001515600582604051610ba09190611b24565b908152602001604051809103902060009054906101000a900460ff16151514610bc857600080fd5b82600685604051610bd99190611b24565b9081526020016040518091039020819055506001600585604051610bfd9190611b24565b908152602001604051809103902060006101000a81548160ff021916908315150217905550610c4c8585600687604051610c379190611b24565b90815260200160405180910390205485610e96565b610c768585600687604051610c619190611b24565b90815260200160405180910390205485610f4b565b6001600754610c859190611c91565b6007819055507f085d194830b068dc5452abc86ba006ddf00bc2b834246f02368b02f35af93eb285858560075486604051610cc4959493929190611d37565b60405180910390a15050505050565b60075481565b600082821115610cec57610ceb611da4565b5b8183610cf89190611dd3565b905092915050565b6000808284610d0f9190611c91565b905083811015610d2257610d21611da4565b5b8091505092915050565b81600360008673ffffffffffffffffffffffffffffffffffffffff1673ffffffffffffffffffffffffffffffffffffffff16815260200190815260200160002084604051610d7a9190611b24565b90815260200160405180910390206000828254610d979190611dd3565b925050819055507f4a8dd1b5065e4650d8130c35f2f7810f04ef9e1ad4cd02c19b6f5d188406004184848484604051610dd39493929190611e79565b60405180910390a150505050565b81600484604051610df29190611b24565b908152602001604051809103902060008673ffffffffffffffffffffffffffffffffffffffff1673ffffffffffffffffffffffffffffffffffffffff1681526020019081526020016000206000828254610e4c9190611dd3565b925050819055507f69fa79b48aab5f58e4a465a7feae2dbbccb177cb04db9d2e712de6ef840884aa84848484604051610e889493929190611f4a565b60405180910390a150505050565b81600360008673ffffffffffffffffffffffffffffffffffffffff1673ffffffffffffffffffffffffffffffffffffffff16815260200190815260200160002084604051610ee49190611b24565b90815260200160405180910390206000828254610f019190611c91565b925050819055507fe0edd612d7ae227f86e7bf050b1ce651a5f2f6874ccbe11c44a5404be394927c84848484604051610f3d949392919061201b565b60405180910390a150505050565b81600484604051610f5c9190611b24565b908152602001604051809103902060008673ffffffffffffffffffffffffffffffffffffffff1673ffffffffffffffffffffffffffffffffffffffff1681526020019081526020016000206000828254610fb69190611c91565b925050819055507f5f2429973260b9be275b16c966825d2f76cd54ef5e4183145fe3252004d211cb84848484604051610ff294939291906120ec565b60405180910390a150505050565b600081519050919050565b600082825260208201905092915050565b60005b8381101561103a57808201518184015260208101905061101f565b60008484015250505050565b6000601f19601f8301169050919050565b600061106282611000565b61106c818561100b565b935061107c81856020860161101c565b61108581611046565b840191505092915050565b600060208201905081810360008301526110aa8184611057565b905092915050565b6000819050919050565b6110c5816110b2565b82525050565b60006020820190506110e060008301846110bc565b92915050565b6000604051905090565b600080fd5b600080fd5b600073ffffffffffffffffffffffffffffffffffffffff82169050919050565b6000611125826110fa565b9050919050565b6111358161111a565b811461114057600080fd5b50565b6000813590506111528161112c565b92915050565b611161816110b2565b811461116c57600080fd5b50565b60008135905061117e81611158565b92915050565b600061118f826110fa565b9050919050565b61119f81611184565b81146111aa57600080fd5b50565b6000813590506111bc81611196565b92915050565b600080600080608085870312156111dc576111db6110f0565b5b60006111ea87828801611143565b94505060206111fb87828801611143565b935050604061120c8782880161116f565b925050606061121d878288016111ad565b91505092959194509250565b60008115159050919050565b61123e81611229565b82525050565b60006020820190506112596000830184611235565b92915050565b600060ff82169050919050565b6112758161125f565b82525050565b6000602082019050611290600083018461126c565b92915050565b6000806000606084860312156112af576112ae6110f0565b5b60006112bd86828701611143565b93505060206112ce8682870161116f565b92505060406112df868287016111ad565b9150509250925092565b600080600060608486031215611302576113016110f0565b5b6000611310868287016111ad565b93505060206113218682870161116f565b9250506040611332868287016111ad565b9150509250925092565b600080fd5b7f4e487b7100000000000000000000000000000000000000000000000000000000600052604160045260246000fd5b61137982611046565b810181811067ffffffffffffffff8211171561139857611397611341565b5b80604052505050565b60006113ab6110e6565b90506113b78282611370565b919050565b600067ffffffffffffffff8211156113d7576113d6611341565b5b602082029050602081019050919050565b600080fd5b600080fd5b600067ffffffffffffffff82111561140d5761140c611341565b5b61141682611046565b9050602081019050919050565b82818337600083830152505050565b6000611445611440846113f2565b6113a1565b905082815260208101848484011115611461576114606113ed565b5b61146c848285611423565b509392505050565b600082601f8301126114895761148861133c565b5b8135611499848260208601611432565b91505092915050565b60006114b56114b0846113bc565b6113a1565b905080838252602082019050602084028301858111156114d8576114d76113e8565b5b835b8181101561151f57803567ffffffffffffffff8111156114fd576114fc61133c565b5b80860161150a8982611474565b855260208501945050506020810190506114da565b5050509392505050565b600082601f83011261153e5761153d61133c565b5b813561154e8482602086016114a2565b91505092915050565b60006020828403121561156d5761156c6110f0565b5b600082013567ffffffffffffffff81111561158b5761158a6110f5565b5b61159784828501611529565b91505092915050565b600081519050919050565b600082825260208201905092915050565b6000819050602082019050919050565b6115d5816110b2565b82525050565b60006115e783836115cc565b60208301905092915050565b6000602082019050919050565b600061160b826115a0565b61161581856115ab565b9350611620836115bc565b8060005b8381101561165157815161163888826115db565b9750611643836115f3565b925050600181019050611624565b5085935050505092915050565b600060208201905081810360008301526116788184611600565b905092915050565b60008060408385031215611697576116966110f0565b5b60006116a585828601611143565b925050602083013567ffffffffffffffff8111156116c6576116c56110f5565b5b6116d285828601611474565b9150509250929050565b600080600080600060a086880312156116f8576116f76110f0565b5b600061170688828901611143565b955050602061171788828901611143565b945050604086013567ffffffffffffffff811115611738576117376110f5565b5b61174488828901611474565b93505060606117558882890161116f565b9250506080611766888289016111ad565b9150509295509295909350565b600060208284031215611789576117886110f0565b5b600061179784828501611143565b91505092915050565b6000602082840312156117b6576117b56110f0565b5b600082013567ffffffffffffffff8111156117d4576117d36110f5565b5b6117e084828501611474565b91505092915050565b60008060008060808587031215611803576118026110f0565b5b600061181187828801611143565b945050602085013567ffffffffffffffff811115611832576118316110f5565b5b61183e87828801611474565b935050604061184f8782880161116f565b9250506060611860878288016111ad565b91505092959194509250565b6118758161111a565b82525050565b61188481611184565b82525050565b7f7472616e73666572436f696e0000000000000000000000000000000000000000600082015250565b60006118c0600c8361100b565b91506118cb8261188a565b602082019050919050565b600060a0820190506118eb600083018761186c565b6118f8602083018661186c565b61190560408301856110bc565b611912606083018461187b565b8181036080830152611923816118b3565b905095945050505050565b7f62757941436f696e000000000000000000000000000000000000000000000000600082015250565b600061196460088361100b565b915061196f8261192e565b602082019050919050565b600060808201905061198f600083018661186c565b61199c60208301856110bc565b6119a9604083018461187b565b81810360608301526119ba81611957565b9050949350505050565b6000819050919050565b60006119e96119e46119df846110fa565b6119c4565b6110fa565b9050919050565b60006119fb826119ce565b9050919050565b6000611a0d826119f0565b9050919050565b611a1d81611a02565b82525050565b7f6275726e41436f696e0000000000000000000000000000000000000000000000600082015250565b6000611a5960098361100b565b9150611a6482611a23565b602082019050919050565b6000608082019050611a846000830186611a14565b611a9160208301856110bc565b611a9e604083018461187b565b8181036060830152611aaf81611a4c565b9050949350505050565b7f4e487b7100000000000000000000000000000000000000000000000000000000600052603260045260246000fd5b600081905092915050565b6000611afe82611000565b611b088185611ae8565b9350611b1881856020860161101c565b80840191505092915050565b6000611b308284611af3565b915081905092915050565b7f4e487b7100000000000000000000000000000000000000000000000000000000600052601160045260246000fd5b6000611b75826110b2565b91507fffffffffffffffffffffffffffffffffffffffffffffffffffffffffffffffff8203611ba757611ba6611b3b565b5b600182019050919050565b7f7472616e73666572202d207472616e73666572207061727473206f662061207460008201527f6f6b656e20746f20616e6f746865722075736572000000000000000000000000602082015250565b6000611c0e60348361100b565b9150611c1982611bb2565b604082019050919050565b600060c082019050611c39600083018861186c565b611c46602083018761186c565b8181036040830152611c588186611057565b9050611c6760608301856110bc565b611c74608083018461187b565b81810360a0830152611c8581611c01565b90509695505050505050565b6000611c9c826110b2565b9150611ca7836110b2565b9250828201905080821115611cbf57611cbe611b3b565b5b92915050565b7f6d696e74202d204d696e74696e67206772616e74732031303025206f6620746860008201527f6520746f6b656e20746f2061206e6577206f776e657200000000000000000000602082015250565b6000611d2160368361100b565b9150611d2c82611cc5565b604082019050919050565b600060c082019050611d4c600083018861186c565b8181036020830152611d5e8187611057565b9050611d6d60408301866110bc565b611d7a60608301856110bc565b611d87608083018461187b565b81810360a0830152611d9881611d14565b90509695505050505050565b7f4e487b7100000000000000000000000000000000000000000000000000000000600052600160045260246000fd5b6000611dde826110b2565b9150611de9836110b2565b9250828203905081811115611e0157611e00611b3b565b5b92915050565b7f5f72656d6f7665536861726546726f6d4c6173744f776e6572202d2052656d6f60008201527f766520746f6b656e20756e6974732066726f6d206c617374206f776e65720000602082015250565b6000611e63603e8361100b565b9150611e6e82611e07565b604082019050919050565b600060a082019050611e8e600083018761186c565b8181036020830152611ea08186611057565b9050611eaf60408301856110bc565b611ebc606083018461187b565b8181036080830152611ecd81611e56565b905095945050505050565b7f5f72656d6f76654c6173744f776e6572486f6c64696e677346726f6d546f6b6560008201527f6e202d2052656d6f766520756e6974732066726f6d206c617374206f776e6572602082015250565b6000611f3460408361100b565b9150611f3f82611ed8565b604082019050919050565b600060a082019050611f5f600083018761186c565b8181036020830152611f718186611057565b9050611f8060408301856110bc565b611f8d606083018461187b565b8181036080830152611f9e81611f27565b905095945050505050565b7f5f6164645368617265546f4e65774f776e6572202d2041646420746f6b656e2060008201527f756e69747320746f206e6577206f776e65720000000000000000000000000000602082015250565b600061200560328361100b565b915061201082611fa9565b604082019050919050565b600060a082019050612030600083018761186c565b81810360208301526120428186611057565b905061205160408301856110bc565b61205e606083018461187b565b818103608083015261206f81611ff8565b905095945050505050565b7f5f6164644e65774f776e6572486f6c64696e6773546f546f6b656e202d20416460008201527f642074686520756e69747320746f206e6577206f776e65720000000000000000602082015250565b60006120d660388361100b565b91506120e18261207a565b604082019050919050565b600060a082019050612101600083018761186c565b81810360208301526121138186611057565b905061212260408301856110bc565b61212f606083018461187b565b8181036080830152612140816120c9565b90509594505050505056fea2646970667358221220873878a4934d6fc93b2c1340d119147e88f14deeeb2ea2e0ba391210725c0d6064736f6c63430008100033",
  "immutableReferences": {},
  "source": "// SPDX-License-Identifier: MIT\r\npragma solidity ^0.8.9;\r\n\r\ncontract DivisibleNFTs {\r\n    using SafeMath for uint256;\r\n\r\n    // ----------------------- Variables for ACoin ------------------------\r\n    string public constant name = \"ACoin\"; // Name of the coin\r\n    string public constant symbol = \"ACNFT\"; // Ticker for ACoin\r\n    uint8 public constant decimals = 18; // Precision of use for the ACoin\r\n    mapping(address => uint256) acoinBalances; // ACoin balances of the Traders\r\n    uint256 acoinTotalSupply; // Total supply of the ACoin\r\n    address payable owner;\r\n\r\n    // ------------------------------ All Events ------------------------------\r\n\tevent unitsOwnedOfATokenEvent(uint256  _balance, address payable _caller, string _message);\r\n\r\n\tevent divisibilityEvent(uint256 _divisibility, address payable _caller, string _message);\r\n\r\n\tevent mintEvent(address _owner, string _tokenId, uint _noOfShares, uint _tokenTotalSupply, address payable _caller, string _message);\r\n\r\n\tevent transferTokenEvent(address _from, address _to, string _tokenId, uint _units, address payable _caller, string _message);\r\n\r\n\tevent totalSupplyEvent(uint256 _totalSupply, address payable _caller, string _message);\r\n\r\n\tevent buyACoinEvent(address _account, uint _numACoins, address payable _caller, string _message);\r\n\r\n\tevent burnACoinEvent(address _account, uint _numACoins, address payable _caller, string _message);\r\n\r\n    event transferACoinEvent(address _from, address _to, uint _numACoins, address payable _caller, string _message);\r\n\r\n\tevent getAcoinTotalSupplyEvent( uint _acoinTotalSupply, address payable _caller, string _message);\r\n\r\n\tevent acoinBalanceOfEvent(uint _acoinBalance, address payable _caller, string _message);\r\n\r\n    event removeShareEvent(address _owner, string _tokenId, uint256 _units, address payable _caller, string _message);\r\n\r\n    event addShareEvent(address _owner, string _tokenId, uint256 _units, address payable _caller, string _message);\r\n\r\n    event removeOwnerHoldingsEvent(address _owner, string _tokenId, uint256 _units, address payable _caller, string _message);\r\n\r\n    event addOwnerHoldingsEvent(address _owner, string _tokenId, uint256 _units, address payable _caller, string _message);\r\n\r\n    // ----------------------- Variables for Non Fungible Token Management------------------------\r\n\r\n    // Percentage of ownership over a token\r\n    mapping(address => mapping(string => uint256)) ownerToTokenShare;\r\n    // {user_account_address --> tokenId --> amount_holded_of_that_tokenId_by_that_address}\r\n\r\n    // How much owners have of a token\r\n    mapping(string => mapping(address => uint256)) tokenToOwnersHoldings;\r\n    // {tokenId --> user_account_address --> amount_holded_of_that_tokenId_by_that_address}\r\n\r\n    // If a token has been created\r\n    mapping(string => bool) mintedToken;\r\n    // tokenId --> returns true or false if the token with that Id is minted\r\n\r\n    // Number of equal(fungible) units that constitute a token (that a token can be divised to)\r\n    mapping(string => uint256) divisibility; // All tokens would have a different divisibilit factor\r\n    // Divisibility for each token is basically the amount of shares that NFT has\r\n\r\n    // total of managed/tracked tokens by this smart contract\r\n    uint256 public tokenTotalSupply;\r\n\r\n    // ------------------------------ Constructor ------------------------------\r\n    constructor() payable {\r\n        acoinTotalSupply = 0;\r\n\t\ttokenTotalSupply = 0;\r\n        owner = payable(msg.sender);\r\n    }\r\n\r\n    // ====================== Everything related to ACoin =========================\r\n\r\n    // ------------------------------ Modifiers ------------------------------\r\n    // Modifier to check that the caller is the owner of\r\n    // the contract.\r\n    modifier onlyOwner() {\r\n        require(\r\n            msg.sender == owner,\r\n            \"Only owner can invoke the transfer of ACoins\"\r\n        );\r\n        _;\r\n    }\r\n\r\n    // ------------------------------ View functions ------------------------------\r\n\r\n    /// @dev The total ACoins in circulation at the moment of invocation of this function\r\n    function getAcoinTotalSupply() public view returns (uint256) {\r\n\t\t// emit getAcoinTotalSupplyEvent(acoinTotalSupply, _caller, \"getAcoinTotalSupply\");\r\n        return acoinTotalSupply;\r\n    }\r\n\r\n    /// @dev The ACoin balance of that address\r\n    function acoinBalanceOf(address acoinOwner) public view returns (uint256) {\r\n\t\t// emit acoinBalanceOfEvent( acoinBalances[acoinOwner], _caller, \"acoinBalanceOf\");\r\n        return acoinBalances[acoinOwner];\r\n    }\r\n\r\n    \r\n\r\n    // ------------------------------ Core public functions ------------------------------\r\n    \r\n\t/// @dev Buying ACoin, transferring ETH to owner\r\n    function buyACoin(address account, uint numACoins, address payable _caller)\r\n\t\tpayable\r\n        public \r\n    {\r\n        acoinBalances[account] = acoinBalances[account].add(numACoins);\r\n\t\tacoinTotalSupply = acoinTotalSupply.add(numACoins);\r\n        payable(owner).transfer(msg.value);\r\n\t\t// payable(owner).transfer(numACoins);\r\n        emit buyACoinEvent(account, numACoins, _caller, \"buyACoin\");\r\n    }\r\n\r\n\t/// @dev Withdrawing ETH from ACoin, transferring ETH to user from owner\r\n    function burnACoin(address payable account, uint numACoins, address payable _caller)\r\n\t\tpayable\r\n        public \r\n        \r\n    {\r\n\t\trequire(acoinBalances[account] >= numACoins);\r\n        acoinBalances[account] = acoinBalances[account].sub(numACoins);\r\n\t\tacoinTotalSupply = acoinTotalSupply.sub(numACoins);\r\n        payable(account).transfer(msg.value);\r\n\t\t// payable(account).transfer(numACoins);\r\n        emit burnACoinEvent(account, numACoins, _caller, \"burnACoin\");\r\n    }\r\n\t\r\n\t/// @dev Transferring ACoin from one user account to another\r\n    function transferACoin(address sender, address receiver, uint256 numACoins, address payable _caller)\r\n        public\r\n        returns (bool)\r\n    {\r\n        require(numACoins <= acoinBalances[sender]);\r\n        acoinBalances[sender] = acoinBalances[sender].sub(numACoins);\r\n        acoinBalances[receiver] = acoinBalances[receiver].add(numACoins);\r\n        emit transferACoinEvent(sender, receiver, numACoins, _caller, \"transferCoin\");\r\n        return true;\r\n    }\r\n\r\n\r\n    // ====================== Everything related to Dividing the NFT =========================\r\n    // ------------------------------ Modifiers ------------------------------\r\n\r\n    modifier onlyNonExistentToken(string memory _tokenId) {\r\n        require(mintedToken[_tokenId] == false);\r\n        _;\r\n    }\r\n\r\n    modifier onlyExistentToken(string memory _tokenId) {\r\n        require(mintedToken[_tokenId] == true);\r\n        _;\r\n    }\r\n\r\n    // ------------------------------ View functions ------------------------------\r\n\r\n    /// @dev The divisiblity amount of a token\r\n\tfunction divisibilityOfAToken(string memory _tokenId) public view returns (uint _divisibility)\r\n\t{\r\n\t\t// emit divisibilityEvent(divisibility[_tokenId], _caller, \"divisibilityOfAToken - The divisiblity amount of a token\");\r\n\t    return divisibility[_tokenId];\r\n\t}\r\n\r\n    function divisibilityOfTokens(string[] memory _tokenIds) public view returns (uint[] memory _divisiblities) {\r\n        uint[] memory divisiblities = new uint[](_tokenIds.length);\r\n        for(uint i = 0; i < _tokenIds.length; i++) {\r\n            divisiblities[i] = divisibility[_tokenIds[i]];\r\n        }\r\n\r\n        return divisiblities;\r\n    }\r\n\r\n\t/// @dev The amount of a totalSupply\r\n    // Earlier totalSupplyView()\r\n\tfunction totalSupplyView() public view returns (uint _totalSupply)\r\n\t{\r\n\t\t// emit totalSupplyEvent(tokenTotalSupply, _caller, \"totalSupplyView\");\r\n\t    return tokenTotalSupply;\r\n\t}\r\n\r\n    /// @dev The balance an owner have of a token\r\n    function unitsOwnedOfAToken(address _owner, string memory _tokenId)\r\n        public view\r\n        returns (uint256 _balance)\r\n    {\r\n\t\t// emit unitsOwnedOfATokenEvent(ownerToTokenShare[_owner][_tokenId], _caller, \"unitsOwnedOfAToken\");\r\n        return ownerToTokenShare[_owner][_tokenId];\r\n    }\r\n\r\n    // ------------------------------ Core public functions ------------------------------\r\n\r\n    /// @dev Anybody can create a token in our example\r\n    /// @notice Minting grants 100% of the token to a new owner in our example\r\n    function mint(\r\n        address _owner,\r\n        string memory _tokenId,\r\n        uint256 _noOfShares,\r\n        address payable _caller\r\n    ) public onlyNonExistentToken(_tokenId) {\r\n\r\n        divisibility[_tokenId] = _noOfShares;\r\n\r\n        mintedToken[_tokenId] = true;\r\n\r\n        _addShareToNewOwner(_owner, _tokenId, divisibility[_tokenId], _caller);\r\n        _addNewOwnerHoldingsToToken(_owner, _tokenId, divisibility[_tokenId], _caller);\r\n\r\n        tokenTotalSupply = tokenTotalSupply + 1;\r\n        emit mintEvent(_owner, _tokenId, _noOfShares, tokenTotalSupply, _caller, \"mint - Minting grants 100% of the token to a new owner\");\r\n\r\n        //Minted(_owner, _tokenId); // emit event\r\n    }\r\n\r\n    /// @dev transfer parts of a token to another user\r\n    // Earlier transfer(_from, _to, _tokenId, _units)\r\n    function transferToken(\r\n        address _from,\r\n        address _to,\r\n        string memory _tokenId,\r\n        uint256 _units,\r\n        address payable _caller\r\n    ) public onlyExistentToken(_tokenId) {\r\n        require(ownerToTokenShare[_from][_tokenId] >= _units);\r\n        // TODO should check _to address to avoid losing tokens units\r\n\r\n        _removeShareFromLastOwner(_from, _tokenId, _units, _caller);\r\n        _removeLastOwnerHoldingsFromToken(_from, _tokenId, _units, _caller);\r\n\r\n        _addShareToNewOwner(_to, _tokenId, _units, _caller);\r\n        _addNewOwnerHoldingsToToken(_to, _tokenId, _units, _caller);\r\n        emit transferTokenEvent(_from,  _to,  _tokenId,  _units, _caller, \"transfer - transfer parts of a token to another user\");\r\n\r\n        //Transfer(msg.sender, _to, _tokenId, _units); // emit event\r\n    }\r\n\r\n    // ------------------------------ Helper functions (internal functions) ------------------------------\r\n\r\n    // Remove token units from last owner\r\n    function _removeShareFromLastOwner(\r\n        address _owner,\r\n        string memory _tokenId,\r\n        uint256 _units,\r\n        address payable _caller\r\n    ) internal {\r\n        ownerToTokenShare[_owner][_tokenId] -= _units;\r\n        emit removeShareEvent(_owner, _tokenId, _units, _caller, \"_removeShareFromLastOwner - Remove token units from last owner\");\r\n\r\n    }\r\n\r\n    // Add token units to new owner\r\n    function _addShareToNewOwner(\r\n        address _owner,\r\n        string memory _tokenId,\r\n        uint256 _units,\r\n        address payable _caller\r\n    ) internal {\r\n        ownerToTokenShare[_owner][_tokenId] += _units;\r\n        emit addShareEvent(_owner, _tokenId, _units, _caller, \"_addShareToNewOwner - Add token units to new owner\");\r\n\r\n    }\r\n\r\n    // Remove units from last owner\r\n    function _removeLastOwnerHoldingsFromToken(\r\n        address _owner,\r\n        string memory _tokenId,\r\n        uint256 _units,\r\n        address payable _caller\r\n    ) internal {\r\n        tokenToOwnersHoldings[_tokenId][_owner] -= _units;\r\n        emit removeOwnerHoldingsEvent(_owner, _tokenId, _units, _caller, \"_removeLastOwnerHoldingsFromToken - Remove units from last owner\");\r\n\r\n    }\r\n\r\n    // Add the units to new owner\r\n    function _addNewOwnerHoldingsToToken(\r\n        address _owner,\r\n        string memory _tokenId,\r\n        uint256 _units,\r\n        address payable _caller\r\n    ) internal {\r\n        tokenToOwnersHoldings[_tokenId][_owner] += _units;\r\n        emit addOwnerHoldingsEvent(_owner, _tokenId, _units, _caller, \"_addNewOwnerHoldingsToToken - Add the units to new owner\");\r\n\r\n    }\r\n}\r\n\r\n\r\nlibrary SafeMath {\r\n    function sub(uint256 a, uint256 b) internal pure returns (uint256) {\r\n        assert(b <= a);\r\n        return a - b;\r\n    }\r\n\r\n    function add(uint256 a, uint256 b) internal pure returns (uint256) {\r\n        uint256 c = a + b;\r\n        assert(c >= a);\r\n        return c;\r\n    }\r\n}",
  "sourcePath": "D:\\Desktop\\fungtrix\\fungtrix-server\\blockchain\\contracts\\DivisibleNFTs.sol",
  "compiler": {
    "name": "solc",
    "version": "0.8.16+commit.07a7930e.Emscripten.clang"
  },
  "schemaVersion": "3.4.10",
  "updatedAt": "2023-02-24T11:09:06.065Z",
  "networkType": "ethereum",
  "devdoc": {
    "kind": "dev",
    "methods": {
      "acoinBalanceOf(address)": {
        "details": "The ACoin balance of that address"
      },
      "burnACoin(address,uint256,address)": {
        "details": "Withdrawing ETH from ACoin, transferring ETH to user from owner"
      },
      "buyACoin(address,uint256,address)": {
        "details": "Buying ACoin, transferring ETH to owner"
      },
      "divisibilityOfAToken(string)": {
        "details": "The divisiblity amount of a token"
      },
      "getAcoinTotalSupply()": {
        "details": "The total ACoins in circulation at the moment of invocation of this function"
      },
      "mint(address,string,uint256,address)": {
        "details": "Anybody can create a token in our example"
      },
      "totalSupplyView()": {
        "details": "The amount of a totalSupply"
      },
      "transferACoin(address,address,uint256,address)": {
        "details": "Transferring ACoin from one user account to another"
      },
      "transferToken(address,address,string,uint256,address)": {
        "details": "transfer parts of a token to another user"
      },
      "unitsOwnedOfAToken(address,string)": {
        "details": "The balance an owner have of a token"
      }
    },
    "version": 1
  },
  "userdoc": {
    "kind": "user",
    "methods": {
      "mint(address,string,uint256,address)": {
        "notice": "Minting grants 100% of the token to a new owner in our example"
      }
    },
    "version": 1
  }
}