{
  "contractName": "DivisibleNFTs",
  "abi": [
    {
      "inputs": [],
      "stateMutability": "payable",
      "type": "constructor",
      "payable": true
    },
    {
      "anonymous": false,
      "inputs": [
        {
          "indexed": false,
          "internalType": "uint256",
          "name": "_acoinBalance",
          "type": "uint256"
        },
        {
          "indexed": false,
          "internalType": "address payable",
          "name": "_caller",
          "type": "address"
        },
        {
          "indexed": false,
          "internalType": "string",
          "name": "_message",
          "type": "string"
        }
      ],
      "name": "acoinBalanceOfEvent",
      "type": "event"
    },
    {
      "anonymous": false,
      "inputs": [
        {
          "indexed": false,
          "internalType": "address",
          "name": "_owner",
          "type": "address"
        },
        {
          "indexed": false,
          "internalType": "string",
          "name": "_tokenId",
          "type": "string"
        },
        {
          "indexed": false,
          "internalType": "uint256",
          "name": "_units",
          "type": "uint256"
        },
        {
          "indexed": false,
          "internalType": "address payable",
          "name": "_caller",
          "type": "address"
        },
        {
          "indexed": false,
          "internalType": "string",
          "name": "_message",
          "type": "string"
        }
      ],
      "name": "addOwnerHoldingsEvent",
      "type": "event"
    },
    {
      "anonymous": false,
      "inputs": [
        {
          "indexed": false,
          "internalType": "address",
          "name": "_owner",
          "type": "address"
        },
        {
          "indexed": false,
          "internalType": "string",
          "name": "_tokenId",
          "type": "string"
        },
        {
          "indexed": false,
          "internalType": "uint256",
          "name": "_units",
          "type": "uint256"
        },
        {
          "indexed": false,
          "internalType": "address payable",
          "name": "_caller",
          "type": "address"
        },
        {
          "indexed": false,
          "internalType": "string",
          "name": "_message",
          "type": "string"
        }
      ],
      "name": "addShareEvent",
      "type": "event"
    },
    {
      "anonymous": false,
      "inputs": [
        {
          "indexed": false,
          "internalType": "address",
          "name": "_account",
          "type": "address"
        },
        {
          "indexed": false,
          "internalType": "uint256",
          "name": "_numACoins",
          "type": "uint256"
        },
        {
          "indexed": false,
          "internalType": "address payable",
          "name": "_caller",
          "type": "address"
        },
        {
          "indexed": false,
          "internalType": "string",
          "name": "_message",
          "type": "string"
        }
      ],
      "name": "burnACoinEvent",
      "type": "event"
    },
    {
      "anonymous": false,
      "inputs": [
        {
          "indexed": false,
          "internalType": "address",
          "name": "_account",
          "type": "address"
        },
        {
          "indexed": false,
          "internalType": "uint256",
          "name": "_numACoins",
          "type": "uint256"
        },
        {
          "indexed": false,
          "internalType": "address payable",
          "name": "_caller",
          "type": "address"
        },
        {
          "indexed": false,
          "internalType": "string",
          "name": "_message",
          "type": "string"
        }
      ],
      "name": "burnACoinINREvent",
      "type": "event"
    },
    {
      "anonymous": false,
      "inputs": [
        {
          "indexed": false,
          "internalType": "address",
          "name": "_account",
          "type": "address"
        },
        {
          "indexed": false,
          "internalType": "uint256",
          "name": "_numACoins",
          "type": "uint256"
        },
        {
          "indexed": false,
          "internalType": "address payable",
          "name": "_caller",
          "type": "address"
        },
        {
          "indexed": false,
          "internalType": "string",
          "name": "_message",
          "type": "string"
        }
      ],
      "name": "buyACoinEvent",
      "type": "event"
    },
    {
      "anonymous": false,
      "inputs": [
        {
          "indexed": false,
          "internalType": "address",
          "name": "_account",
          "type": "address"
        },
        {
          "indexed": false,
          "internalType": "uint256",
          "name": "_numACoins",
          "type": "uint256"
        },
        {
          "indexed": false,
          "internalType": "address payable",
          "name": "_caller",
          "type": "address"
        },
        {
          "indexed": false,
          "internalType": "string",
          "name": "_message",
          "type": "string"
        }
      ],
      "name": "buyACoinINREvent",
      "type": "event"
    },
    {
      "anonymous": false,
      "inputs": [
        {
          "indexed": false,
          "internalType": "uint256",
          "name": "_divisibility",
          "type": "uint256"
        },
        {
          "indexed": false,
          "internalType": "address payable",
          "name": "_caller",
          "type": "address"
        },
        {
          "indexed": false,
          "internalType": "string",
          "name": "_message",
          "type": "string"
        }
      ],
      "name": "divisibilityEvent",
      "type": "event"
    },
    {
      "anonymous": false,
      "inputs": [
        {
          "indexed": false,
          "internalType": "uint256",
          "name": "_acoinTotalSupply",
          "type": "uint256"
        },
        {
          "indexed": false,
          "internalType": "address payable",
          "name": "_caller",
          "type": "address"
        },
        {
          "indexed": false,
          "internalType": "string",
          "name": "_message",
          "type": "string"
        }
      ],
      "name": "getAcoinTotalSupplyEvent",
      "type": "event"
    },
    {
      "anonymous": false,
      "inputs": [
        {
          "indexed": false,
          "internalType": "address",
          "name": "_owner",
          "type": "address"
        },
        {
          "indexed": false,
          "internalType": "string",
          "name": "_tokenId",
          "type": "string"
        },
        {
          "indexed": false,
          "internalType": "uint256",
          "name": "_noOfShares",
          "type": "uint256"
        },
        {
          "indexed": false,
          "internalType": "uint256",
          "name": "_tokenTotalSupply",
          "type": "uint256"
        },
        {
          "indexed": false,
          "internalType": "address payable",
          "name": "_caller",
          "type": "address"
        },
        {
          "indexed": false,
          "internalType": "string",
          "name": "_message",
          "type": "string"
        }
      ],
      "name": "mintEvent",
      "type": "event"
    },
    {
      "anonymous": false,
      "inputs": [
        {
          "indexed": false,
          "internalType": "address",
          "name": "_owner",
          "type": "address"
        },
        {
          "indexed": false,
          "internalType": "string",
          "name": "_tokenId",
          "type": "string"
        },
        {
          "indexed": false,
          "internalType": "uint256",
          "name": "_units",
          "type": "uint256"
        },
        {
          "indexed": false,
          "internalType": "address payable",
          "name": "_caller",
          "type": "address"
        },
        {
          "indexed": false,
          "internalType": "string",
          "name": "_message",
          "type": "string"
        }
      ],
      "name": "removeOwnerHoldingsEvent",
      "type": "event"
    },
    {
      "anonymous": false,
      "inputs": [
        {
          "indexed": false,
          "internalType": "address",
          "name": "_owner",
          "type": "address"
        },
        {
          "indexed": false,
          "internalType": "string",
          "name": "_tokenId",
          "type": "string"
        },
        {
          "indexed": false,
          "internalType": "uint256",
          "name": "_units",
          "type": "uint256"
        },
        {
          "indexed": false,
          "internalType": "address payable",
          "name": "_caller",
          "type": "address"
        },
        {
          "indexed": false,
          "internalType": "string",
          "name": "_message",
          "type": "string"
        }
      ],
      "name": "removeShareEvent",
      "type": "event"
    },
    {
      "anonymous": false,
      "inputs": [
        {
          "indexed": false,
          "internalType": "uint256",
          "name": "_totalSupply",
          "type": "uint256"
        },
        {
          "indexed": false,
          "internalType": "address payable",
          "name": "_caller",
          "type": "address"
        },
        {
          "indexed": false,
          "internalType": "string",
          "name": "_message",
          "type": "string"
        }
      ],
      "name": "totalSupplyEvent",
      "type": "event"
    },
    {
      "anonymous": false,
      "inputs": [
        {
          "indexed": false,
          "internalType": "address",
          "name": "_from",
          "type": "address"
        },
        {
          "indexed": false,
          "internalType": "address",
          "name": "_to",
          "type": "address"
        },
        {
          "indexed": false,
          "internalType": "uint256",
          "name": "_numACoins",
          "type": "uint256"
        },
        {
          "indexed": false,
          "internalType": "address payable",
          "name": "_caller",
          "type": "address"
        },
        {
          "indexed": false,
          "internalType": "string",
          "name": "_message",
          "type": "string"
        }
      ],
      "name": "transferACoinEvent",
      "type": "event"
    },
    {
      "anonymous": false,
      "inputs": [
        {
          "indexed": false,
          "internalType": "address",
          "name": "_from",
          "type": "address"
        },
        {
          "indexed": false,
          "internalType": "address",
          "name": "_to",
          "type": "address"
        },
        {
          "indexed": false,
          "internalType": "string",
          "name": "_tokenId",
          "type": "string"
        },
        {
          "indexed": false,
          "internalType": "uint256",
          "name": "_units",
          "type": "uint256"
        },
        {
          "indexed": false,
          "internalType": "address payable",
          "name": "_caller",
          "type": "address"
        },
        {
          "indexed": false,
          "internalType": "string",
          "name": "_message",
          "type": "string"
        }
      ],
      "name": "transferTokenEvent",
      "type": "event"
    },
    {
      "anonymous": false,
      "inputs": [
        {
          "indexed": false,
          "internalType": "uint256",
          "name": "_balance",
          "type": "uint256"
        },
        {
          "indexed": false,
          "internalType": "address payable",
          "name": "_caller",
          "type": "address"
        },
        {
          "indexed": false,
          "internalType": "string",
          "name": "_message",
          "type": "string"
        }
      ],
      "name": "unitsOwnedOfATokenEvent",
      "type": "event"
    },
    {
      "inputs": [],
      "name": "decimals",
      "outputs": [
        {
          "internalType": "uint8",
          "name": "",
          "type": "uint8"
        }
      ],
      "stateMutability": "view",
      "type": "function",
      "constant": true
    },
    {
      "inputs": [],
      "name": "name",
      "outputs": [
        {
          "internalType": "string",
          "name": "",
          "type": "string"
        }
      ],
      "stateMutability": "view",
      "type": "function",
      "constant": true
    },
    {
      "inputs": [],
      "name": "symbol",
      "outputs": [
        {
          "internalType": "string",
          "name": "",
          "type": "string"
        }
      ],
      "stateMutability": "view",
      "type": "function",
      "constant": true
    },
    {
      "inputs": [],
      "name": "tokenTotalSupply",
      "outputs": [
        {
          "internalType": "uint256",
          "name": "",
          "type": "uint256"
        }
      ],
      "stateMutability": "view",
      "type": "function",
      "constant": true
    },
    {
      "inputs": [],
      "name": "getAcoinTotalSupply",
      "outputs": [
        {
          "internalType": "uint256",
          "name": "",
          "type": "uint256"
        }
      ],
      "stateMutability": "view",
      "type": "function",
      "constant": true
    },
    {
      "inputs": [
        {
          "internalType": "address",
          "name": "acoinOwner",
          "type": "address"
        }
      ],
      "name": "acoinBalanceOf",
      "outputs": [
        {
          "internalType": "uint256",
          "name": "",
          "type": "uint256"
        }
      ],
      "stateMutability": "view",
      "type": "function",
      "constant": true
    },
    {
      "inputs": [
        {
          "internalType": "address",
          "name": "account",
          "type": "address"
        },
        {
          "internalType": "uint256",
          "name": "numACoins",
          "type": "uint256"
        },
        {
          "internalType": "address payable",
          "name": "_caller",
          "type": "address"
        }
      ],
      "name": "buyACoin",
      "outputs": [],
      "stateMutability": "payable",
      "type": "function",
      "payable": true
    },
    {
      "inputs": [
        {
          "internalType": "address",
          "name": "account",
          "type": "address"
        },
        {
          "internalType": "uint256",
          "name": "numACoins",
          "type": "uint256"
        },
        {
          "internalType": "address payable",
          "name": "_caller",
          "type": "address"
        }
      ],
      "name": "buyACoinINR",
      "outputs": [],
      "stateMutability": "payable",
      "type": "function",
      "payable": true
    },
    {
      "inputs": [
        {
          "internalType": "address payable",
          "name": "account",
          "type": "address"
        },
        {
          "internalType": "uint256",
          "name": "numACoins",
          "type": "uint256"
        },
        {
          "internalType": "address payable",
          "name": "_caller",
          "type": "address"
        }
      ],
      "name": "burnACoin",
      "outputs": [],
      "stateMutability": "payable",
      "type": "function",
      "payable": true
    },
    {
      "inputs": [
        {
          "internalType": "address payable",
          "name": "account",
          "type": "address"
        },
        {
          "internalType": "uint256",
          "name": "numACoins",
          "type": "uint256"
        },
        {
          "internalType": "address payable",
          "name": "_caller",
          "type": "address"
        }
      ],
      "name": "burnACoinINR",
      "outputs": [],
      "stateMutability": "payable",
      "type": "function",
      "payable": true
    },
    {
      "inputs": [
        {
          "internalType": "address",
          "name": "sender",
          "type": "address"
        },
        {
          "internalType": "address",
          "name": "receiver",
          "type": "address"
        },
        {
          "internalType": "uint256",
          "name": "numACoins",
          "type": "uint256"
        },
        {
          "internalType": "address payable",
          "name": "_caller",
          "type": "address"
        }
      ],
      "name": "transferACoin",
      "outputs": [
        {
          "internalType": "bool",
          "name": "",
          "type": "bool"
        }
      ],
      "stateMutability": "nonpayable",
      "type": "function"
    },
    {
      "inputs": [
        {
          "internalType": "string",
          "name": "_tokenId",
          "type": "string"
        }
      ],
      "name": "divisibilityOfAToken",
      "outputs": [
        {
          "internalType": "uint256",
          "name": "_divisibility",
          "type": "uint256"
        }
      ],
      "stateMutability": "view",
      "type": "function",
      "constant": true
    },
    {
      "inputs": [
        {
          "internalType": "string[]",
          "name": "_tokenIds",
          "type": "string[]"
        }
      ],
      "name": "divisibilityOfTokens",
      "outputs": [
        {
          "internalType": "uint256[]",
          "name": "_divisiblities",
          "type": "uint256[]"
        }
      ],
      "stateMutability": "view",
      "type": "function",
      "constant": true
    },
    {
      "inputs": [],
      "name": "totalSupplyView",
      "outputs": [
        {
          "internalType": "uint256",
          "name": "_totalSupply",
          "type": "uint256"
        }
      ],
      "stateMutability": "view",
      "type": "function",
      "constant": true
    },
    {
      "inputs": [
        {
          "internalType": "address",
          "name": "_owner",
          "type": "address"
        },
        {
          "internalType": "string",
          "name": "_tokenId",
          "type": "string"
        }
      ],
      "name": "unitsOwnedOfAToken",
      "outputs": [
        {
          "internalType": "uint256",
          "name": "_balance",
          "type": "uint256"
        }
      ],
      "stateMutability": "view",
      "type": "function",
      "constant": true
    },
    {
      "inputs": [
        {
          "internalType": "address",
          "name": "_owner",
          "type": "address"
        },
        {
          "internalType": "string",
          "name": "_tokenId",
          "type": "string"
        },
        {
          "internalType": "uint256",
          "name": "_noOfShares",
          "type": "uint256"
        },
        {
          "internalType": "address payable",
          "name": "_caller",
          "type": "address"
        }
      ],
      "name": "mint",
      "outputs": [],
      "stateMutability": "nonpayable",
      "type": "function"
    },
    {
      "inputs": [
        {
          "internalType": "address",
          "name": "_from",
          "type": "address"
        },
        {
          "internalType": "address",
          "name": "_to",
          "type": "address"
        },
        {
          "internalType": "string",
          "name": "_tokenId",
          "type": "string"
        },
        {
          "internalType": "uint256",
          "name": "_units",
          "type": "uint256"
        },
        {
          "internalType": "uint256",
          "name": "_price",
          "type": "uint256"
        },
        {
          "internalType": "address payable",
          "name": "_caller",
          "type": "address"
        }
      ],
      "name": "transferToken",
      "outputs": [],
      "stateMutability": "nonpayable",
      "type": "function"
    },
    {
      "inputs": [
        {
          "internalType": "address",
          "name": "_from",
          "type": "address"
        },
        {
          "internalType": "address",
          "name": "_to",
          "type": "address"
        },
        {
          "internalType": "string",
          "name": "_tokenId",
          "type": "string"
        },
        {
          "internalType": "uint256",
          "name": "_units",
          "type": "uint256"
        }
      ],
      "name": "getPrice",
      "outputs": [
        {
          "internalType": "uint256",
          "name": "",
          "type": "uint256"
        }
      ],
      "stateMutability": "view",
      "type": "function",
      "constant": true
    }
  ],
  "bytecode": "0x60806040526000600281905550600060088190555033600360006101000a81548173ffffffffffffffffffffffffffffffffffffffff021916908373ffffffffffffffffffffffffffffffffffffffff1602179055506127a2806100646000396000f3fe6080604052600436106101095760003560e01c806395d89b4111610095578063bcc4da4c11610064578063bcc4da4c14610349578063da32fcc814610372578063dcecd152146103af578063edc6fb6d146103ec578063f7abab9e1461041557610109565b806395d89b4114610267578063ad6a592614610292578063b38fd866146102cf578063bb559b1b1461030c57610109565b8063313ce567116100dc578063313ce567146101bd578063667e686e146101e85780637898cd18146102045780637f11f4481461022f5780638b652d171461024b57610109565b806306fdde031461010e5780630e4156ed146101395780631fdb3b991461016457806327978d84146101a1575b600080fd5b34801561011a57600080fd5b50610123610440565b60405161013091906114f0565b60405180910390f35b34801561014557600080fd5b5061014e610479565b60405161015b919061152b565b60405180910390f35b34801561017057600080fd5b5061018b60048036038101906101869190611622565b610483565b60405161019891906116a4565b60405180910390f35b6101bb60048036038101906101b691906116bf565b61063f565b005b3480156101c957600080fd5b506101d261072d565b6040516101df919061172e565b60405180910390f35b61020260048036038101906101fd9190611749565b610732565b005b34801561021057600080fd5b5061021961086b565b604051610226919061152b565b60405180910390f35b610249600480360381019061024491906116bf565b610875565b005b61026560048036038101906102609190611749565b6109cc565b005b34801561027357600080fd5b5061027c610b4c565b60405161028991906114f0565b60405180910390f35b34801561029e57600080fd5b506102b960048036038101906102b491906119b7565b610b85565b6040516102c69190611abe565b60405180910390f35b3480156102db57600080fd5b506102f660048036038101906102f19190611ae0565b610c56565b604051610303919061152b565b60405180910390f35b34801561031857600080fd5b50610333600480360381019061032e9190611b63565b610d4a565b604051610340919061152b565b60405180910390f35b34801561035557600080fd5b50610370600480360381019061036b9190611bbf565b610db0565b005b34801561037e57600080fd5b5061039960048036038101906103949190611c68565b610f7b565b6040516103a6919061152b565b60405180910390f35b3480156103bb57600080fd5b506103d660048036038101906103d19190611c95565b610fc3565b6040516103e3919061152b565b60405180910390f35b3480156103f857600080fd5b50610413600480360381019061040e9190611cde565b610feb565b005b34801561042157600080fd5b5061042a611133565b604051610437919061152b565b60405180910390f35b6040518060400160405280600581526020017f41436f696e00000000000000000000000000000000000000000000000000000081525081565b6000600254905090565b60008060008673ffffffffffffffffffffffffffffffffffffffff1673ffffffffffffffffffffffffffffffffffffffff168152602001908152602001600020548311156104d057600080fd5b610521836000808873ffffffffffffffffffffffffffffffffffffffff1673ffffffffffffffffffffffffffffffffffffffff1681526020019081526020016000205461113990919063ffffffff16565b6000808773ffffffffffffffffffffffffffffffffffffffff1673ffffffffffffffffffffffffffffffffffffffff168152602001908152602001600020819055506105b4836000808773ffffffffffffffffffffffffffffffffffffffff1673ffffffffffffffffffffffffffffffffffffffff1681526020019081526020016000205461116090919063ffffffff16565b6000808673ffffffffffffffffffffffffffffffffffffffff1673ffffffffffffffffffffffffffffffffffffffff168152602001908152602001600020819055507f6992faa82ee29db844a27cdd697868a4945bd323777aec54f05f6f22f0bc7faa8585858560405161062b9493929190611dcb565b60405180910390a160019050949350505050565b610690826000808673ffffffffffffffffffffffffffffffffffffffff1673ffffffffffffffffffffffffffffffffffffffff1681526020019081526020016000205461116090919063ffffffff16565b6000808573ffffffffffffffffffffffffffffffffffffffff1673ffffffffffffffffffffffffffffffffffffffff168152602001908152602001600020819055506106e78260025461116090919063ffffffff16565b6002819055507fbede3305fe481e413eaade53b312c675c1175b3d4af6f726955e7d804490b38783838360405161072093929190611e6f565b60405180910390a1505050565b601281565b816000808573ffffffffffffffffffffffffffffffffffffffff1673ffffffffffffffffffffffffffffffffffffffff16815260200190815260200160002054101561077d57600080fd5b6107ce826000808673ffffffffffffffffffffffffffffffffffffffff1673ffffffffffffffffffffffffffffffffffffffff1681526020019081526020016000205461113990919063ffffffff16565b6000808573ffffffffffffffffffffffffffffffffffffffff1673ffffffffffffffffffffffffffffffffffffffff168152602001908152602001600020819055506108258260025461113990919063ffffffff16565b6002819055507f8e816e6fd99201796ba50f4a40037bc93da03367d6065eab033cad31200c007483838360405161085e93929190611f64565b60405180910390a1505050565b6000600854905090565b6108c6826000808673ffffffffffffffffffffffffffffffffffffffff1673ffffffffffffffffffffffffffffffffffffffff1681526020019081526020016000205461116090919063ffffffff16565b6000808573ffffffffffffffffffffffffffffffffffffffff1673ffffffffffffffffffffffffffffffffffffffff1681526020019081526020016000208190555061091d8260025461116090919063ffffffff16565b600281905550600360009054906101000a900473ffffffffffffffffffffffffffffffffffffffff1673ffffffffffffffffffffffffffffffffffffffff166108fc349081150290604051600060405180830381858888f1935050505015801561098b573d6000803e3d6000fd5b507ff316e092b0518493864304254ed96b5deadf34e2653c7fd788885c40325987628383836040516109bf93929190611ffa565b60405180910390a1505050565b816000808573ffffffffffffffffffffffffffffffffffffffff1673ffffffffffffffffffffffffffffffffffffffff168152602001908152602001600020541015610a1757600080fd5b610a68826000808673ffffffffffffffffffffffffffffffffffffffff1673ffffffffffffffffffffffffffffffffffffffff1681526020019081526020016000205461113990919063ffffffff16565b6000808573ffffffffffffffffffffffffffffffffffffffff1673ffffffffffffffffffffffffffffffffffffffff16815260200190815260200160002081905550610abf8260025461113990919063ffffffff16565b6002819055508273ffffffffffffffffffffffffffffffffffffffff166108fc349081150290604051600060405180830381858888f19350505050158015610b0b573d6000803e3d6000fd5b507f6ec61e14a95cf5c673e41b0b4c2b336914e7f7fc7ec0d27d24cdc75c309fc0f5838383604051610b3f93929190612090565b60405180910390a1505050565b6040518060400160405280600581526020017f41434e465400000000000000000000000000000000000000000000000000000081525081565b60606000825167ffffffffffffffff811115610ba457610ba36117a1565b5b604051908082528060200260200182016040528015610bd25781602001602082028036833780820191505090505b50905060005b8351811015610c4c576007848281518110610bf657610bf56120da565b5b6020026020010151604051610c0b9190612145565b908152602001604051809103902054828281518110610c2d57610c2c6120da565b5b6020026020010181815250508080610c449061218b565b915050610bd8565b5080915050919050565b60008260011515600682604051610c6d9190612145565b908152602001604051809103902060009054906101000a900460ff16151514610c9557600080fd5b600160008773ffffffffffffffffffffffffffffffffffffffff1673ffffffffffffffffffffffffffffffffffffffff16815260200190815260200160002060008673ffffffffffffffffffffffffffffffffffffffff1673ffffffffffffffffffffffffffffffffffffffff16815260200190815260200160002084604051610d1f9190612145565b9081526020016040518091039020600084815260200190815260200160002054915050949350505050565b6000600460008473ffffffffffffffffffffffffffffffffffffffff1673ffffffffffffffffffffffffffffffffffffffff16815260200190815260200160002082604051610d999190612145565b908152602001604051809103902054905092915050565b8360011515600682604051610dc59190612145565b908152602001604051809103902060009054906101000a900460ff16151514610ded57600080fd5b83600460008973ffffffffffffffffffffffffffffffffffffffff1673ffffffffffffffffffffffffffffffffffffffff16815260200190815260200160002086604051610e3b9190612145565b9081526020016040518091039020541015610e5557600080fd5b82600160008973ffffffffffffffffffffffffffffffffffffffff1673ffffffffffffffffffffffffffffffffffffffff16815260200190815260200160002060008873ffffffffffffffffffffffffffffffffffffffff1673ffffffffffffffffffffffffffffffffffffffff16815260200190815260200160002086604051610ee09190612145565b9081526020016040518091039020600086815260200190815260200160002081905550610f0f8786868561118c565b610f1b87868685611241565b610f27868686856112f6565b610f33868686856113ab565b7f1bfb3e062301b862bda0182eeea9d6af5e60a672c2b197945098932e23cf3f7d8787878786604051610f6a959493929190612245565b60405180910390a150505050505050565b60008060008373ffffffffffffffffffffffffffffffffffffffff1673ffffffffffffffffffffffffffffffffffffffff168152602001908152602001600020549050919050565b6000600782604051610fd59190612145565b9081526020016040518091039020549050919050565b82600015156006826040516110009190612145565b908152602001604051809103902060009054906101000a900460ff1615151461102857600080fd5b826007856040516110399190612145565b908152602001604051809103902081905550600160068560405161105d9190612145565b908152602001604051809103902060006101000a81548160ff0219169083151502179055506110ac85856007876040516110979190612145565b908152602001604051809103902054856112f6565b6110d685856007876040516110c19190612145565b908152602001604051809103902054856113ab565b60016008546110e591906122b2565b6008819055507f085d194830b068dc5452abc86ba006ddf00bc2b834246f02368b02f35af93eb285858560085486604051611124959493929190612358565b60405180910390a15050505050565b60085481565b60008282111561114c5761114b6123c5565b5b818361115891906123f4565b905092915050565b600080828461116f91906122b2565b905083811015611182576111816123c5565b5b8091505092915050565b81600460008673ffffffffffffffffffffffffffffffffffffffff1673ffffffffffffffffffffffffffffffffffffffff168152602001908152602001600020846040516111da9190612145565b908152602001604051809103902060008282546111f791906123f4565b925050819055507f4a8dd1b5065e4650d8130c35f2f7810f04ef9e1ad4cd02c19b6f5d188406004184848484604051611233949392919061249a565b60405180910390a150505050565b816005846040516112529190612145565b908152602001604051809103902060008673ffffffffffffffffffffffffffffffffffffffff1673ffffffffffffffffffffffffffffffffffffffff16815260200190815260200160002060008282546112ac91906123f4565b925050819055507f69fa79b48aab5f58e4a465a7feae2dbbccb177cb04db9d2e712de6ef840884aa848484846040516112e8949392919061256b565b60405180910390a150505050565b81600460008673ffffffffffffffffffffffffffffffffffffffff1673ffffffffffffffffffffffffffffffffffffffff168152602001908152602001600020846040516113449190612145565b9081526020016040518091039020600082825461136191906122b2565b925050819055507fe0edd612d7ae227f86e7bf050b1ce651a5f2f6874ccbe11c44a5404be394927c8484848460405161139d949392919061263c565b60405180910390a150505050565b816005846040516113bc9190612145565b908152602001604051809103902060008673ffffffffffffffffffffffffffffffffffffffff1673ffffffffffffffffffffffffffffffffffffffff168152602001908152602001600020600082825461141691906122b2565b925050819055507f5f2429973260b9be275b16c966825d2f76cd54ef5e4183145fe3252004d211cb84848484604051611452949392919061270d565b60405180910390a150505050565b600081519050919050565b600082825260208201905092915050565b60005b8381101561149a57808201518184015260208101905061147f565b60008484015250505050565b6000601f19601f8301169050919050565b60006114c282611460565b6114cc818561146b565b93506114dc81856020860161147c565b6114e5816114a6565b840191505092915050565b6000602082019050818103600083015261150a81846114b7565b905092915050565b6000819050919050565b61152581611512565b82525050565b6000602082019050611540600083018461151c565b92915050565b6000604051905090565b600080fd5b600080fd5b600073ffffffffffffffffffffffffffffffffffffffff82169050919050565b60006115858261155a565b9050919050565b6115958161157a565b81146115a057600080fd5b50565b6000813590506115b28161158c565b92915050565b6115c181611512565b81146115cc57600080fd5b50565b6000813590506115de816115b8565b92915050565b60006115ef8261155a565b9050919050565b6115ff816115e4565b811461160a57600080fd5b50565b60008135905061161c816115f6565b92915050565b6000806000806080858703121561163c5761163b611550565b5b600061164a878288016115a3565b945050602061165b878288016115a3565b935050604061166c878288016115cf565b925050606061167d8782880161160d565b91505092959194509250565b60008115159050919050565b61169e81611689565b82525050565b60006020820190506116b96000830184611695565b92915050565b6000806000606084860312156116d8576116d7611550565b5b60006116e6868287016115a3565b93505060206116f7868287016115cf565b92505060406117088682870161160d565b9150509250925092565b600060ff82169050919050565b61172881611712565b82525050565b6000602082019050611743600083018461171f565b92915050565b60008060006060848603121561176257611761611550565b5b60006117708682870161160d565b9350506020611781868287016115cf565b92505060406117928682870161160d565b9150509250925092565b600080fd5b7f4e487b7100000000000000000000000000000000000000000000000000000000600052604160045260246000fd5b6117d9826114a6565b810181811067ffffffffffffffff821117156117f8576117f76117a1565b5b80604052505050565b600061180b611546565b905061181782826117d0565b919050565b600067ffffffffffffffff821115611837576118366117a1565b5b602082029050602081019050919050565b600080fd5b600080fd5b600067ffffffffffffffff82111561186d5761186c6117a1565b5b611876826114a6565b9050602081019050919050565b82818337600083830152505050565b60006118a56118a084611852565b611801565b9050828152602081018484840111156118c1576118c061184d565b5b6118cc848285611883565b509392505050565b600082601f8301126118e9576118e861179c565b5b81356118f9848260208601611892565b91505092915050565b60006119156119108461181c565b611801565b9050808382526020820190506020840283018581111561193857611937611848565b5b835b8181101561197f57803567ffffffffffffffff81111561195d5761195c61179c565b5b80860161196a89826118d4565b8552602085019450505060208101905061193a565b5050509392505050565b600082601f83011261199e5761199d61179c565b5b81356119ae848260208601611902565b91505092915050565b6000602082840312156119cd576119cc611550565b5b600082013567ffffffffffffffff8111156119eb576119ea611555565b5b6119f784828501611989565b91505092915050565b600081519050919050565b600082825260208201905092915050565b6000819050602082019050919050565b611a3581611512565b82525050565b6000611a478383611a2c565b60208301905092915050565b6000602082019050919050565b6000611a6b82611a00565b611a758185611a0b565b9350611a8083611a1c565b8060005b83811015611ab1578151611a988882611a3b565b9750611aa383611a53565b925050600181019050611a84565b5085935050505092915050565b60006020820190508181036000830152611ad88184611a60565b905092915050565b60008060008060808587031215611afa57611af9611550565b5b6000611b08878288016115a3565b9450506020611b19878288016115a3565b935050604085013567ffffffffffffffff811115611b3a57611b39611555565b5b611b46878288016118d4565b9250506060611b57878288016115cf565b91505092959194509250565b60008060408385031215611b7a57611b79611550565b5b6000611b88858286016115a3565b925050602083013567ffffffffffffffff811115611ba957611ba8611555565b5b611bb5858286016118d4565b9150509250929050565b60008060008060008060c08789031215611bdc57611bdb611550565b5b6000611bea89828a016115a3565b9650506020611bfb89828a016115a3565b955050604087013567ffffffffffffffff811115611c1c57611c1b611555565b5b611c2889828a016118d4565b9450506060611c3989828a016115cf565b9350506080611c4a89828a016115cf565b92505060a0611c5b89828a0161160d565b9150509295509295509295565b600060208284031215611c7e57611c7d611550565b5b6000611c8c848285016115a3565b91505092915050565b600060208284031215611cab57611caa611550565b5b600082013567ffffffffffffffff811115611cc957611cc8611555565b5b611cd5848285016118d4565b91505092915050565b60008060008060808587031215611cf857611cf7611550565b5b6000611d06878288016115a3565b945050602085013567ffffffffffffffff811115611d2757611d26611555565b5b611d33878288016118d4565b9350506040611d44878288016115cf565b9250506060611d558782880161160d565b91505092959194509250565b611d6a8161157a565b82525050565b611d79816115e4565b82525050565b7f7472616e73666572436f696e0000000000000000000000000000000000000000600082015250565b6000611db5600c8361146b565b9150611dc082611d7f565b602082019050919050565b600060a082019050611de06000830187611d61565b611ded6020830186611d61565b611dfa604083018561151c565b611e076060830184611d70565b8181036080830152611e1881611da8565b905095945050505050565b7f62757941436f696e494e52000000000000000000000000000000000000000000600082015250565b6000611e59600b8361146b565b9150611e6482611e23565b602082019050919050565b6000608082019050611e846000830186611d61565b611e91602083018561151c565b611e9e6040830184611d70565b8181036060830152611eaf81611e4c565b9050949350505050565b6000819050919050565b6000611ede611ed9611ed48461155a565b611eb9565b61155a565b9050919050565b6000611ef082611ec3565b9050919050565b6000611f0282611ee5565b9050919050565b611f1281611ef7565b82525050565b7f6275726e41436f696e494e520000000000000000000000000000000000000000600082015250565b6000611f4e600c8361146b565b9150611f5982611f18565b602082019050919050565b6000608082019050611f796000830186611f09565b611f86602083018561151c565b611f936040830184611d70565b8181036060830152611fa481611f41565b9050949350505050565b7f62757941436f696e000000000000000000000000000000000000000000000000600082015250565b6000611fe460088361146b565b9150611fef82611fae565b602082019050919050565b600060808201905061200f6000830186611d61565b61201c602083018561151c565b6120296040830184611d70565b818103606083015261203a81611fd7565b9050949350505050565b7f6275726e41436f696e0000000000000000000000000000000000000000000000600082015250565b600061207a60098361146b565b915061208582612044565b602082019050919050565b60006080820190506120a56000830186611f09565b6120b2602083018561151c565b6120bf6040830184611d70565b81810360608301526120d08161206d565b9050949350505050565b7f4e487b7100000000000000000000000000000000000000000000000000000000600052603260045260246000fd5b600081905092915050565b600061211f82611460565b6121298185612109565b935061213981856020860161147c565b80840191505092915050565b60006121518284612114565b915081905092915050565b7f4e487b7100000000000000000000000000000000000000000000000000000000600052601160045260246000fd5b600061219682611512565b91507fffffffffffffffffffffffffffffffffffffffffffffffffffffffffffffffff82036121c8576121c761215c565b5b600182019050919050565b7f7472616e73666572202d207472616e73666572207061727473206f662061207460008201527f6f6b656e20746f20616e6f746865722075736572000000000000000000000000602082015250565b600061222f60348361146b565b915061223a826121d3565b604082019050919050565b600060c08201905061225a6000830188611d61565b6122676020830187611d61565b818103604083015261227981866114b7565b9050612288606083018561151c565b6122956080830184611d70565b81810360a08301526122a681612222565b90509695505050505050565b60006122bd82611512565b91506122c883611512565b92508282019050808211156122e0576122df61215c565b5b92915050565b7f6d696e74202d204d696e74696e67206772616e74732031303025206f6620746860008201527f6520746f6b656e20746f2061206e6577206f776e657200000000000000000000602082015250565b600061234260368361146b565b915061234d826122e6565b604082019050919050565b600060c08201905061236d6000830188611d61565b818103602083015261237f81876114b7565b905061238e604083018661151c565b61239b606083018561151c565b6123a86080830184611d70565b81810360a08301526123b981612335565b90509695505050505050565b7f4e487b7100000000000000000000000000000000000000000000000000000000600052600160045260246000fd5b60006123ff82611512565b915061240a83611512565b92508282039050818111156124225761242161215c565b5b92915050565b7f5f72656d6f7665536861726546726f6d4c6173744f776e6572202d2052656d6f60008201527f766520746f6b656e20756e6974732066726f6d206c617374206f776e65720000602082015250565b6000612484603e8361146b565b915061248f82612428565b604082019050919050565b600060a0820190506124af6000830187611d61565b81810360208301526124c181866114b7565b90506124d0604083018561151c565b6124dd6060830184611d70565b81810360808301526124ee81612477565b905095945050505050565b7f5f72656d6f76654c6173744f776e6572486f6c64696e677346726f6d546f6b6560008201527f6e202d2052656d6f766520756e6974732066726f6d206c617374206f776e6572602082015250565b600061255560408361146b565b9150612560826124f9565b604082019050919050565b600060a0820190506125806000830187611d61565b818103602083015261259281866114b7565b90506125a1604083018561151c565b6125ae6060830184611d70565b81810360808301526125bf81612548565b905095945050505050565b7f5f6164645368617265546f4e65774f776e6572202d2041646420746f6b656e2060008201527f756e69747320746f206e6577206f776e65720000000000000000000000000000602082015250565b600061262660328361146b565b9150612631826125ca565b604082019050919050565b600060a0820190506126516000830187611d61565b818103602083015261266381866114b7565b9050612672604083018561151c565b61267f6060830184611d70565b818103608083015261269081612619565b905095945050505050565b7f5f6164644e65774f776e6572486f6c64696e6773546f546f6b656e202d20416460008201527f642074686520756e69747320746f206e6577206f776e65720000000000000000602082015250565b60006126f760388361146b565b91506127028261269b565b604082019050919050565b600060a0820190506127226000830187611d61565b818103602083015261273481866114b7565b9050612743604083018561151c565b6127506060830184611d70565b8181036080830152612761816126ea565b90509594505050505056fea26469706673582212202af5d43150e29b315a3c7a959f302c181e414ce8b1524e289a664498d2aedad664736f6c63430008100033",
  "immutableReferences": {},
  "source": "// SPDX-License-Identifier: MIT\r\npragma solidity ^0.8.9;\r\n\r\ncontract DivisibleNFTs {\r\n    using SafeMath for uint256;\r\n\r\n    // ----------------------- Variables for ACoin ------------------------\r\n    string public constant name = \"ACoin\"; // Name of the coin\r\n    string public constant symbol = \"ACNFT\"; // Ticker for ACoin\r\n    uint8 public constant decimals = 18; // Precision of use for the ACoin\r\n    mapping(address => uint256) acoinBalances; // ACoin balances of the Traders\r\n    mapping(address => mapping(address => mapping(string => mapping(uint => uint)))) confirmedPrice;\r\n    uint256 acoinTotalSupply; // Total supply of the ACoin\r\n    address payable owner;\r\n\r\n    // ------------------------------ All Events ------------------------------\r\n\tevent unitsOwnedOfATokenEvent(uint256  _balance, address payable _caller, string _message);\r\n\r\n\tevent divisibilityEvent(uint256 _divisibility, address payable _caller, string _message);\r\n\r\n\tevent mintEvent(address _owner, string _tokenId, uint _noOfShares, uint _tokenTotalSupply, address payable _caller, string _message);\r\n\r\n\tevent transferTokenEvent(address _from, address _to, string _tokenId, uint _units, address payable _caller, string _message);\r\n\r\n\tevent totalSupplyEvent(uint256 _totalSupply, address payable _caller, string _message);\r\n\r\n\tevent buyACoinEvent(address _account, uint _numACoins, address payable _caller, string _message);\r\n\r\n\tevent buyACoinINREvent(address _account, uint _numACoins, address payable _caller, string _message);\r\n\r\n\tevent burnACoinEvent(address _account, uint _numACoins, address payable _caller, string _message);\r\n\t\r\n    event burnACoinINREvent(address _account, uint _numACoins, address payable _caller, string _message);\r\n\r\n    event transferACoinEvent(address _from, address _to, uint _numACoins, address payable _caller, string _message);\r\n\r\n\tevent getAcoinTotalSupplyEvent( uint _acoinTotalSupply, address payable _caller, string _message);\r\n\r\n\tevent acoinBalanceOfEvent(uint _acoinBalance, address payable _caller, string _message);\r\n\r\n    event removeShareEvent(address _owner, string _tokenId, uint256 _units, address payable _caller, string _message);\r\n\r\n    event addShareEvent(address _owner, string _tokenId, uint256 _units, address payable _caller, string _message);\r\n\r\n    event removeOwnerHoldingsEvent(address _owner, string _tokenId, uint256 _units, address payable _caller, string _message);\r\n\r\n    event addOwnerHoldingsEvent(address _owner, string _tokenId, uint256 _units, address payable _caller, string _message);\r\n\r\n    // ----------------------- Variables for Non Fungible Token Management------------------------\r\n\r\n    // Percentage of ownership over a token\r\n    mapping(address => mapping(string => uint256)) ownerToTokenShare;\r\n    // {user_account_address --> tokenId --> amount_holded_of_that_tokenId_by_that_address}\r\n\r\n    // How much owners have of a token\r\n    mapping(string => mapping(address => uint256)) tokenToOwnersHoldings;\r\n    // {tokenId --> user_account_address --> amount_holded_of_that_tokenId_by_that_address}\r\n\r\n    // If a token has been created\r\n    mapping(string => bool) mintedToken;\r\n    // tokenId --> returns true or false if the token with that Id is minted\r\n\r\n    // Number of equal(fungible) units that constitute a token (that a token can be divised to)\r\n    mapping(string => uint256) divisibility; // All tokens would have a different divisibilit factor\r\n    // Divisibility for each token is basically the amount of shares that NFT has\r\n\r\n    // total of managed/tracked tokens by this smart contract\r\n    uint256 public tokenTotalSupply;\r\n\r\n    // ------------------------------ Constructor ------------------------------\r\n    constructor() payable {\r\n        acoinTotalSupply = 0;\r\n\t\ttokenTotalSupply = 0;\r\n        owner = payable(msg.sender);\r\n    }\r\n\r\n    // ====================== Everything related to ACoin =========================\r\n\r\n    // ------------------------------ Modifiers ------------------------------\r\n    // Modifier to check that the caller is the owner of\r\n    // the contract.\r\n    modifier onlyOwner() {\r\n        require(\r\n            msg.sender == owner,\r\n            \"Only owner can invoke the transfer of ACoins\"\r\n        );\r\n        _;\r\n    }\r\n\r\n    // ------------------------------ View functions ------------------------------\r\n\r\n    /// @dev The total ACoins in circulation at the moment of invocation of this function\r\n    function getAcoinTotalSupply() public view returns (uint256) {\r\n\t\t// emit getAcoinTotalSupplyEvent(acoinTotalSupply, _caller, \"getAcoinTotalSupply\");\r\n        return acoinTotalSupply;\r\n    }\r\n\r\n    /// @dev The ACoin balance of that address\r\n    function acoinBalanceOf(address acoinOwner) public view returns (uint256) {\r\n\t\t// emit acoinBalanceOfEvent( acoinBalances[acoinOwner], _caller, \"acoinBalanceOf\");\r\n        return acoinBalances[acoinOwner];\r\n    }\r\n\r\n    \r\n\r\n    // ------------------------------ Core public functions ------------------------------\r\n    \r\n\t/// @dev Buying ACoin, transferring ETH to owner\r\n    function buyACoin(address account, uint numACoins, address payable _caller)\r\n\t\tpayable\r\n        public \r\n    {\r\n        acoinBalances[account] = acoinBalances[account].add(numACoins);\r\n\t\tacoinTotalSupply = acoinTotalSupply.add(numACoins);\r\n        payable(owner).transfer(msg.value);\r\n\t\t// payable(owner).transfer(numACoins);\r\n        emit buyACoinEvent(account, numACoins, _caller, \"buyACoin\");\r\n    }\r\n\r\n    /// @dev Buying ACoin, transferring INR\r\n    function buyACoinINR(address account, uint numACoins, address payable _caller)\r\n\t\tpayable\r\n        public \r\n    {\r\n        acoinBalances[account] = acoinBalances[account].add(numACoins);\r\n\t\tacoinTotalSupply = acoinTotalSupply.add(numACoins);\r\n        // payable(owner).transfer(msg.value);\r\n\t\t// payable(owner).transfer(numACoins);\r\n        emit buyACoinINREvent(account, numACoins, _caller, \"buyACoinINR\");\r\n    }\r\n\r\n\t/// @dev Withdrawing ETH from ACoin, transferring ETH to user from owner\r\n    function burnACoin(address payable account, uint numACoins, address payable _caller)\r\n\t\tpayable\r\n        public \r\n        \r\n    {\r\n\t\trequire(acoinBalances[account] >= numACoins);\r\n        acoinBalances[account] = acoinBalances[account].sub(numACoins);\r\n\t\tacoinTotalSupply = acoinTotalSupply.sub(numACoins);\r\n        payable(account).transfer(msg.value);\r\n\t\t// payable(account).transfer(numACoins);\r\n        emit burnACoinEvent(account, numACoins, _caller, \"burnACoin\");\r\n    }\r\n\r\n    /// @dev Withdrawing ETH from ACoin, transferring ETH to user from owner\r\n    function burnACoinINR(address payable account, uint numACoins, address payable _caller)\r\n\t\tpayable\r\n        public \r\n        \r\n    {\r\n\t\trequire(acoinBalances[account] >= numACoins);\r\n        acoinBalances[account] = acoinBalances[account].sub(numACoins);\r\n\t\tacoinTotalSupply = acoinTotalSupply.sub(numACoins);\r\n        // payable(account).transfer(msg.value);\r\n\t\t// payable(account).transfer(numACoins);\r\n        emit burnACoinINREvent(account, numACoins, _caller, \"burnACoinINR\");\r\n    }\r\n\t\r\n\t/// @dev Transferring ACoin from one user account to another\r\n    function transferACoin(address sender, address receiver, uint256 numACoins, address payable _caller)\r\n        public\r\n        returns (bool)\r\n    {\r\n        require(numACoins <= acoinBalances[sender]);\r\n        acoinBalances[sender] = acoinBalances[sender].sub(numACoins);\r\n        acoinBalances[receiver] = acoinBalances[receiver].add(numACoins);\r\n        emit transferACoinEvent(sender, receiver, numACoins, _caller, \"transferCoin\");\r\n        return true;\r\n    }\r\n\r\n\r\n    // ====================== Everything related to Dividing the NFT =========================\r\n    // ------------------------------ Modifiers ------------------------------\r\n\r\n    modifier onlyNonExistentToken(string memory _tokenId) {\r\n        require(mintedToken[_tokenId] == false);\r\n        _;\r\n    }\r\n\r\n    modifier onlyExistentToken(string memory _tokenId) {\r\n        require(mintedToken[_tokenId] == true);\r\n        _;\r\n    }\r\n\r\n    // ------------------------------ View functions ------------------------------\r\n\r\n    /// @dev The divisiblity amount of a token\r\n\tfunction divisibilityOfAToken(string memory _tokenId) public view returns (uint _divisibility)\r\n\t{\r\n\t\t// emit divisibilityEvent(divisibility[_tokenId], _caller, \"divisibilityOfAToken - The divisiblity amount of a token\");\r\n\t    return divisibility[_tokenId];\r\n\t}\r\n\r\n    function divisibilityOfTokens(string[] memory _tokenIds) public view returns (uint[] memory _divisiblities) {\r\n        uint[] memory divisiblities = new uint[](_tokenIds.length);\r\n        for(uint i = 0; i < _tokenIds.length; i++) {\r\n            divisiblities[i] = divisibility[_tokenIds[i]];\r\n        }\r\n\r\n        return divisiblities;\r\n    }\r\n\r\n\t/// @dev The amount of a totalSupply\r\n    // Earlier totalSupplyView()\r\n\tfunction totalSupplyView() public view returns (uint _totalSupply)\r\n\t{\r\n\t\t// emit totalSupplyEvent(tokenTotalSupply, _caller, \"totalSupplyView\");\r\n\t    return tokenTotalSupply;\r\n\t}\r\n\r\n    /// @dev The balance an owner have of a token\r\n    function unitsOwnedOfAToken(address _owner, string memory _tokenId)\r\n        public view\r\n        returns (uint256 _balance)\r\n    {\r\n\t\t// emit unitsOwnedOfATokenEvent(ownerToTokenShare[_owner][_tokenId], _caller, \"unitsOwnedOfAToken\");\r\n        return ownerToTokenShare[_owner][_tokenId];\r\n    }\r\n\r\n    // ------------------------------ Core public functions ------------------------------\r\n\r\n    /// @dev Anybody can create a token in our example\r\n    /// @notice Minting grants 100% of the token to a new owner in our example\r\n    function mint(\r\n        address _owner,\r\n        string memory _tokenId,\r\n        uint256 _noOfShares,\r\n        address payable _caller\r\n    ) public onlyNonExistentToken(_tokenId) {\r\n\r\n        divisibility[_tokenId] = _noOfShares;\r\n\r\n        mintedToken[_tokenId] = true;\r\n\r\n        _addShareToNewOwner(_owner, _tokenId, divisibility[_tokenId], _caller);\r\n        _addNewOwnerHoldingsToToken(_owner, _tokenId, divisibility[_tokenId], _caller);\r\n\r\n        tokenTotalSupply = tokenTotalSupply + 1;\r\n        emit mintEvent(_owner, _tokenId, _noOfShares, tokenTotalSupply, _caller, \"mint - Minting grants 100% of the token to a new owner\");\r\n\r\n        //Minted(_owner, _tokenId); // emit event\r\n    }\r\n\r\n    /// @dev transfer parts of a token to another user\r\n    // Earlier transfer(_from, _to, _tokenId, _units)\r\n    function transferToken(\r\n        address _from,\r\n        address _to,\r\n        string memory _tokenId,\r\n        uint256 _units,\r\n        uint256 _price,\r\n        address payable _caller\r\n    ) public onlyExistentToken(_tokenId) {\r\n        require(ownerToTokenShare[_from][_tokenId] >= _units);\r\n        // TODO should check _to address to avoid losing tokens units\r\n\r\n        confirmedPrice[_from][_to][_tokenId][_units] = _price;\r\n\r\n        _removeShareFromLastOwner(_from, _tokenId, _units, _caller);\r\n        _removeLastOwnerHoldingsFromToken(_from, _tokenId, _units, _caller);\r\n\r\n        _addShareToNewOwner(_to, _tokenId, _units, _caller);\r\n        _addNewOwnerHoldingsToToken(_to, _tokenId, _units, _caller);\r\n        emit transferTokenEvent(_from,  _to,  _tokenId,  _units, _caller, \"transfer - transfer parts of a token to another user\");\r\n\r\n        //Transfer(msg.sender, _to, _tokenId, _units); // emit event\r\n    }\r\n\r\n    function getPrice(\r\n        address _from,\r\n        address _to,\r\n        string memory _tokenId,\r\n        uint256 _units\r\n    ) public view onlyExistentToken(_tokenId) returns(uint) {\r\n        \r\n        return confirmedPrice[_from][_to][_tokenId][_units];\r\n        // emit transferTokenEvent(_from,  _to,  _tokenId,  _units, _caller, \"transfer - transfer parts of a token to another user\");\r\n\r\n        //Transfer(msg.sender, _to, _tokenId, _units); // emit event\r\n    }\r\n\r\n\r\n    // ------------------------------ Helper functions (internal functions) ------------------------------\r\n\r\n    // Remove token units from last owner\r\n    function _removeShareFromLastOwner(\r\n        address _owner,\r\n        string memory _tokenId,\r\n        uint256 _units,\r\n        address payable _caller\r\n    ) internal {\r\n        ownerToTokenShare[_owner][_tokenId] -= _units;\r\n        emit removeShareEvent(_owner, _tokenId, _units, _caller, \"_removeShareFromLastOwner - Remove token units from last owner\");\r\n\r\n    }\r\n\r\n    // Add token units to new owner\r\n    function _addShareToNewOwner(\r\n        address _owner,\r\n        string memory _tokenId,\r\n        uint256 _units,\r\n        address payable _caller\r\n    ) internal {\r\n        ownerToTokenShare[_owner][_tokenId] += _units;\r\n        emit addShareEvent(_owner, _tokenId, _units, _caller, \"_addShareToNewOwner - Add token units to new owner\");\r\n\r\n    }\r\n\r\n    // Remove units from last owner\r\n    function _removeLastOwnerHoldingsFromToken(\r\n        address _owner,\r\n        string memory _tokenId,\r\n        uint256 _units,\r\n        address payable _caller\r\n    ) internal {\r\n        tokenToOwnersHoldings[_tokenId][_owner] -= _units;\r\n        emit removeOwnerHoldingsEvent(_owner, _tokenId, _units, _caller, \"_removeLastOwnerHoldingsFromToken - Remove units from last owner\");\r\n\r\n    }\r\n\r\n    // Add the units to new owner\r\n    function _addNewOwnerHoldingsToToken(\r\n        address _owner,\r\n        string memory _tokenId,\r\n        uint256 _units,\r\n        address payable _caller\r\n    ) internal {\r\n        tokenToOwnersHoldings[_tokenId][_owner] += _units;\r\n        emit addOwnerHoldingsEvent(_owner, _tokenId, _units, _caller, \"_addNewOwnerHoldingsToToken - Add the units to new owner\");\r\n\r\n    }\r\n}\r\n\r\n\r\nlibrary SafeMath {\r\n    function sub(uint256 a, uint256 b) internal pure returns (uint256) {\r\n        assert(b <= a);\r\n        return a - b;\r\n    }\r\n\r\n    function add(uint256 a, uint256 b) internal pure returns (uint256) {\r\n        uint256 c = a + b;\r\n        assert(c >= a);\r\n        return c;\r\n    }\r\n}",
  "sourcePath": "D:\\Desktop\\fungtrix\\fungtrix-server\\blockchain\\contracts\\DivisibleNFTs.sol",
  "compiler": {
    "name": "solc",
    "version": "0.8.16+commit.07a7930e.Emscripten.clang"
  },
  "schemaVersion": "3.4.10",
  "updatedAt": "2023-02-25T03:31:19.127Z",
  "networkType": "ethereum",
  "devdoc": {
    "kind": "dev",
    "methods": {
      "acoinBalanceOf(address)": {
        "details": "The ACoin balance of that address"
      },
      "burnACoin(address,uint256,address)": {
        "details": "Withdrawing ETH from ACoin, transferring ETH to user from owner"
      },
      "burnACoinINR(address,uint256,address)": {
        "details": "Withdrawing ETH from ACoin, transferring ETH to user from owner"
      },
      "buyACoin(address,uint256,address)": {
        "details": "Buying ACoin, transferring ETH to owner"
      },
      "buyACoinINR(address,uint256,address)": {
        "details": "Buying ACoin, transferring INR"
      },
      "divisibilityOfAToken(string)": {
        "details": "The divisiblity amount of a token"
      },
      "getAcoinTotalSupply()": {
        "details": "The total ACoins in circulation at the moment of invocation of this function"
      },
      "mint(address,string,uint256,address)": {
        "details": "Anybody can create a token in our example"
      },
      "totalSupplyView()": {
        "details": "The amount of a totalSupply"
      },
      "transferACoin(address,address,uint256,address)": {
        "details": "Transferring ACoin from one user account to another"
      },
      "transferToken(address,address,string,uint256,uint256,address)": {
        "details": "transfer parts of a token to another user"
      },
      "unitsOwnedOfAToken(address,string)": {
        "details": "The balance an owner have of a token"
      }
    },
    "version": 1
  },
  "userdoc": {
    "kind": "user",
    "methods": {
      "mint(address,string,uint256,address)": {
        "notice": "Minting grants 100% of the token to a new owner in our example"
      }
    },
    "version": 1
  }
}